:100000000C941B090C9453090C9453090C944D3116
:100010000C9453090C9453090C9453090C945309F0
:100020000C9453090C9453090C946B1A0C948C1E69
:100030000C94462A0C9453090C9453090C945309BC
:100040000C9453090C9453090C9453090C945309C0
:100050000C9453090C94441B0C9453090C945309AD
:100060000C9453090C9453090C9453090C945309A0
:100070000C9453090C9453090C9453090C94530990
:100080000C9453090C9453090C9453090C94530980
:100090000C9453090C9453090C9453090C94530970
:1000A0000C9453090C9453090C945309FFFFFFFF60
:1000B000FFFFFFFFFFFFFFFFFFFFFFFFFFFFFFFF50
:1000C000FFFFFFFFFFFFFFFFFFFFFFFFFFFFFFFF40
:1000D000FFFFFFFFFFFFFFFFFFFFFFFFFFFFFFFF30
:1000E000FFFFFFFFFFFFFFFFFFFFFFFFFFFFFFFF20
:1000F000FFFFFFFFFFFFFFFFFFFFFFFFFFFFFFFF10
:10010000FFFFFFFFFFFFFFFFFFFFFFFFFFFFFFFFFF
:10011000FFFFFFFFFFFFFFFFFFFFFFFFFFFFFFFFEF
:10012000FFFFFFFFFFFFFFFFFFFFFFFFFFFFFFFFDF
:10013000FFFFFFFFFFFFFFFFFFFFFFFFFFFFFFFFCF
:10014000FFFFFFFFFFFFFFFFFFFFFFFFFFFFFFFFBF
:10015000FF3F1F070703010100000000000000002F
:1001600000010103070F1F7FFFFFFFFFFFFFFF0FCE
:10017000000000008080C0D0FCFCF0E0F0F0E0E087
:10018000E0E040C00000000003FFFFFFFFFFFFFFB3
:10019000F00000000E7EFEFFFFFFFFFFFFFFFFFFEE
:1001A000FFFFFF7F0F0000C0FCFFFFFFFFFFFFFF0F
:1001B000FFFFFEF8F0F0F0E1A1830307070783C318
:1001C000C1F1F07000C0FCFFFFFFFFFFFFCFD3F5D0
:1001D000FF7FFFFFFFFFFD6CBDFFFF7FDF7F7F7FA6
:1001E0009F9FEFF09EBF7FEFE7D7CFFFFFFCF8F0B8
:1001F000E1C1C3878787030F030F0F0D030F0D0C9A
:100200000383878687C3C1E0E2F1F8FFFFFFFFFFAA
:10021000FFFFFFFFFFFFFFFFFFFFFFFFFFFFFFFFEE
:10022000FFFFFFFFFFFFFFFFFFFFFFFFFFFFFFFFDE
:10023000FFFFFFFFFFFFFFFFFFFFFFFFFFFFFFFFCE
:10024000FFFFFFFFFFFFFFFFFFFFFFFFFFFFFFFFBE
:10025000FFFFFFFFFFFFFFFFFFFFFFFFFFFFFFFFAE
:10026000FFFFFFFFFFFFFFFFFFFFFFFFFFFFFFFF9E
:10027000FFFFFFFFFFFFFFFFFFFFFFFFFFFFFFFF8E
:10028000FFFFFFFFFFFFFFFFFFFFFFFFFFFFFFFF7E
:10029000FFFFFFFFFFFFFFFFFFFFFFFFFFFFFFFF6E
:1002A000FFFFFFFFFFFFFFFFFFFFFFFFFFFFFFFF5E
:1002B000FFFFFFFFFFFFFFFFFFFFFFFFFFFFFFFF4E
:1002C000FFFFFFFFFFFFFFFFFFFFFFFFFFFFFFFF3E
:1002D000FFFFFFFFFFFFFFFFFFFFFFFFFFFFFFFF2E
:1002E000FFFFFFFFFFFFFFFFFFFFFFFFFFFFFFFF1E
:1002F000FFFFFFFFFFFFFFFFFFFFFFFFFFFFFFFF0E
:10030000FFFFFFFFFFFFFFFFFFFFFFFFFFFFFFFFFD
:10031000FFFFFFFFFFFFFFFFFFFFFFFFFFFFFFFFED
:10032000FFFFFFFFFFFFFFFFFFFFFFFFFFFFFFFFDD
:10033000FFFFFFFFFFFFFFFFFFFFFFFFFFFFFFFFCD
:10034000FFFFFFFFFFFFFFFFFFFFFFFFFFFFFFFFBD
:10035000FF3F0F0703030100000000000000000042
:1003600000010103070F1F7FFFFFFFFFFFFFFF07D4
:10037000000000008080C0D0FCFCF0E0F0F0E0E085
:10038000E0E040C00000000007FFFFFFFFFFFFFEAE
:10039000F00000000E3E7FFFFFFFFFFFFFFFFFFFAB
:1003A000FFFFFF7F1F000080FCFFFFFFFFFFFFFF3D
:1003B000FFFFFFF8F0F0F0E081830307078787C3B2
:1003C000C3F1F00800C0F8FFFFFFFFFFFF5FB3FFBE
:1003D000FFFFFFFFFFEFBDEDBDEF7FFF9FFFEF6D65
:1003E000FFFB7F70FEFFFFFFFBE7EF7FFFFCF8E105
:1003F000E1E3C3C38785830F070F0F0E0F0E0F0FA7
:100400000B03878787C7C5E1E1F1F0FCFFFFFFFF22
:10041000FFFFFFFFFFFFFFFFFFFFFFFFFFFFFFFFEC
:10042000FFFFFFFFFFFFFFFFFFFFFFFFFFFFFFFFDC
:10043000FFFFFFFFFFFFFFFFFFFFFFFFFFFFFFFFCC
:10044000FFFFFFFFFFFFFFFFFFFFFFFFFFFFFFFFBC
:10045000FFFFFFFFFFFFFFFFFFFFFFFFFFFFFFFFAC
:10046000FFFFFFFFFFFFFFFFFFFFFFFFFFFFFFFF9C
:10047000FFFFFFFFFFFFFFFFFFFFFFFFFFFFFFFF8C
:10048000FFFFFFFFFFFFFFFFFFFFFFFFFFFFFFFF7C
:10049000FFFFFFFFFFFFFFFFFFFFFFFFFFFFFFFF6C
:1004A000FFFFFFFFFFFFFFFFFFFFFFFFFFFFFFFF5C
:1004B000FFFFFFFFFFFFFFFFFFFFFFFFFFFFFFFF4C
:1004C000FFFFFFFFFFFFFFFFFFFFFFFFFFFFFFFF3C
:1004D000FFFFFFFFFFFFFFFFFFFFFFFFFFFFFFFF2C
:1004E000FFFFFFFFFFFFFFFFFFFFFFFFFFFFFFFF1C
:1004F000FFFFFFFFFFFFFFFFFFFFFFFFFFFFFFFF0C
:10050000FFFFFFFFFFFFFFFFFFFFFFFFFFFFFFFFFB
:10051000FFFFFFFFFFFFFFFFFFFFFFFFFFFFFFFFEB
:10052000FFFFFFFFFFFFFFFFFFFFFFFFFFFFFFFFDB
:10053000FFFFFFFFFFFFFFFFFFFFFFFFFFFFFFFFCB
:10054000FFFFFFFFFFFFFFFFFFFFFFFFFFFFFFFFBB
:10055000FF3F0F070703010100000000000000003B
:1005600000010103070F1F7FFFFFFFFFFFFFFF0FCA
:10057000000000008080C0C0FCFCF0E0F0E0E0A0E3
:10058000E0E040C00000000003FFFFFFFFFFFFFFAF
:10059000F00000000E3EFFFFFFFFFFFFFFFFFFFF29
:1005A000FFFFFF7F1F0000C0FCFFFFFFFFFFFFFFFB
:1005B000FFFFFFF8F0F0F0E081838307070787C3B0
:1005C000C3F1F0E00000F8FFFFFFFFFFFF1F0FFB8C
:1005D000DFFFBFFFFF7FFDFDDD7D7FFF9FEFFF7F23
:1005E000FDFF7FFFB0BEFFFFF7DFE71FFFFCF0F06E
:1005F000E1C3C387878683070B0D0C0E030E0F0F15
:100600000383858583C3C7E4E0F1F8FFFFFFFFFFA5
:10061000FFFFFFFFFFFFFFFFFFFFFFFFFFFFFFFFEA
:10062000FFFFFFFFFFFFFFFFFFFFFFFFFFFFFFFFDA
:10063000FFFFFFFFFFFFFFFFFFFFFFFFFFFFFFFFCA
:10064000FFFFFFFFFFFFFFFFFFFFFFFFFFFFFFFFBA
:10065000FFFFFFFFFFFFFFFFFFFFFFFFFFFFFFFFAA
:10066000FFFFFFFFFFFFFFFFFFFFFFFFFFFFFFFF9A
:10067000FFFFFFFFFFFFFFFFFFFFFFFFFFFFFFFF8A
:10068000FFFFFFFFFFFFFFFFFFFFFFFFFFFFFFFF7A
:10069000FFFFFFFFFFFFFFFFFFFFFFFFFFFFFFFF6A
:1006A000FFFFFFFFFFFFFFFFFFFFFFFFFFFFFFFF5A
:1006B000FFFFFFFFFFFFFFFFFFFFFFFFFFFFFFFF4A
:1006C000FFFFFFFFFFFFFFFFFFFFFFFFFFFFFFFF3A
:1006D000FFFFFFFFFFFFFFFFFFFFFFFFFFFFFFFF2A
:1006E000FFFFFFFFFFFFFFFFFFFFFFFFFFFFFFFF1A
:1006F000FFFFFFFFFFFFFFFFFFFFFFFFFFFFFFFF0A
:10070000FFFFFFFFFFFFFFFFFFFFFFFFFFFFFFFFF9
:10071000FFFFFFFFFFFFFFFFFFFFFFFFFFFFFFFFE9
:10072000FFFFFFFFFFFFFFFFFFFFFFFFFFFFFFFFD9
:10073000FFFFFFFFFFFFFFFFFFFFFFFFFFFFFFFFC9
:10074000FFFFFFFFFFFFFFFFFFFFFFFFFFFFFFFFB9
:10075000FF3F0F070301010100000000000000003F
:1007600000010103070F1F7FFFFFFFFFFFFFFFFFD8
:10077000000000000080C040DCFCF0E0E0F0E0A001
:1007800060E060C08000000003FFFFFFFFFFFFFF8D
:10079000F0C000000E1F3EFFFFFFFFFFFFFFFFFF47
:1007A000FFFFFFFF7F000000F8FFFFFFFFFFFFFFDD
:1007B000FFFFFFF8F0F0F0E0A0810307070787C311
:1007C000C3F1F1700080F8FEFFFFFFFFFF0F9F7D78
:1007D0009F7FBFFFFFFFFDFCFDFFEF6FDFEF6FEFC0
:1007E000FFFF7BF0FEFFF77FFFD74FFFFFFCF0F12D
:1007F000E1C0C38787850304070D0F0F030E0F05A4
:100800000383868787C3C1E3E1F0F8FFFFFFFFFFA3
:10081000FFFFFFFFFFFFFFFFFFFFFFFFFFFFFFFFE8
:10082000FFFFFFFFFFFFFFFFFFFFFFFFFFFFFFFFD8
:10083000FFFFFFFFFFFFFFFFFFFFFFFFFFFFFFFFC8
:10084000FFFFFFFFFFFFFFFFFFFFFFFFFFFFFFFFB8
:10085000FFFFFFFFFFFFFFFFFFFFFFFFFFFFFFFFA8
:10086000FFFFFFFFFFFFFFFFFFFFFFFFFFFFFFFF98
:10087000FFFFFFFFFFFFFFFFFFFFFFFFFFFFFFFF88
:10088000FFFFFFFFFFFFFFFFFFFFFFFFFFFFFFFF78
:10089000FFFFFFFFFFFFFFFFFFFFFFFFFFFFFFFF68
:1008A000FFFFFFFFFFFFFFFFFFFFFFFFFFFFFFFF58
:1008B000FFFFFFFFFFFFFFFFFFFFFFFFFFFFFFFF48
:1008C000FFFFFFFFFFFFFFFFFFFFFFFFFFFFFFFF38
:1008D000FFFFFFFFFFFFFFFFFFFFFFFFFFFFFFFF28
:1008E000FFFFFFFFFFFFFFFFFFFFFFFFFFFFFFFF18
:1008F000FFFFFFFFFFFFFFFFFFFFFFFFFFFFFFFF08
:10090000FFFFFFFFFFFFFFFFFFFFFFFFFFFFFFFFF7
:10091000FFFFFFFFFFFFFFFFFFFFFFFFFFFFFFFFE7
:10092000FFFFFFFFFFFFFFFFFFFFFFFFFFFFFFFFD7
:10093000FFFFFFFFFFFFFFFFFFFFFFFFFFFFFFFFC7
:10094000FFFFFFFFFFFFFFFFFFFFFFFFFFFFFFFFB7
:10095000FF7F1F0F030301000000000000000000E4
:100960000001010303070F3FFFFFFFFFFFFFFF1F12
:10097000070000000080C0C0F0FCFCE0E0F0E0A058
:10098000E0E060C00000000000F7FFFFFFFFFFFF96
:10099000E00000000E3FFFFFFFFFFFFFFFFFFFFF34
:1009A000FFFFFF7F07000080FEFFFFFFFFFFFFFF4D
:1009B000FFFFFFF8F0F0F0A0A1830307078787C3CC
:1009C000C3F1F03000C0FCFFFFFFFFFFFF8FFF7D92
:1009D000FFFFFFFFFFFBFDFCFDFFFF7F9FFF7F7F12
:1009E000FFFFFFF0DEDFFFFFEBC7AFFFFFFCF8F01C
:1009F000E1C1C38387840305030E0F0F0F0D0F0F93
:100A00000B8B868583C3C0E0E3F1F0FFFFFFFFFFA0
:100A1000FFFFFFFFFFFFFFFFFFFFFFFFFFFFFFFFE6
:100A2000FFFFFFFFFFFFFFFFFFFFFFFFFFFFFFFFD6
:100A3000FFFFFFFFFFFFFFFFFFFFFFFFFFFFFFFFC6
:100A4000FFFFFFFFFFFFFFFFFFFFFFFFFFFFFFFFB6
:100A5000FFFFFFFFFFFFFFFFFFFFFFFFFFFFFFFFA6
:100A6000FFFFFFFFFFFFFFFFFFFFFFFFFFFFFFFF96
:100A7000FFFFFFFFFFFFFFFFFFFFFFFFFFFFFFFF86
:100A8000FFFFFFFFFFFFFFFFFFFFFFFFFFFFFFFF76
:100A9000FFFFFFFFFFFFFFFFFFFFFFFFFFFFFFFF66
:100AA000FFFFFFFFFFFFFFFFFFFFFFFFFFFFFFFF56
:100AB000FFFFFFFFFFFFFFFFFFFFFFFFFFFFFFFF46
:100AC000FFFFFFFFFFFFFFFFFFFFFFFFFFFFFFFF36
:100AD000FFFFFFFFFFFFFFFFFFFFFFFFFFFFFFFF26
:100AE000FFFFFFFFFFFFFFFFFFFFFFFFFFFFFFFF16
:100AF000FFFFFFFFFFFFFFFFFFFFFFFFFFFFFFFF06
:100B0000FFFFFFFFFFFFFFFFFFFFFFFFFFFFFFFFF5
:100B1000FFFFFFFFFFFFFFFFFFFFFFFFFFFFFFFFE5
:100B2000FFFFFFFFFFFFFFFFFFFFFFFFFFFFFFFFD5
:100B3000FFFFFFFFFFFFFFFFFFFFFFFFFFFFFFFFC5
:100B4000FFFFFFFFFFFFFFFFFFFFFFFFFFFFFFFFB5
:100B5000FF3F0F070303010000000000000000003A
:100B600000010103070F1F7FFFFFFFFFFFFFFF07CC
:100B7000000000008080C040FCFCF0E0F0F0E0A04D
:100B8000E0E040C00000000003FFFFFFFFFFFFFEAA
:100B9000F00000000F3E7FFFFFFFFFFFFFFFFFFFA2
:100BA000FFFFFF7F1F000080FEFFFFFFFFFFFFFF33
:100BB000FFFFFFF8F0F0F0E081830307070783C32E
:100BC000C1F1700000C0FCFFFFFFFFFFFF0FF36FDC
:100BD000BF7FFFFFFFFFDDFDFDEF7F7FFF7F7FFF1B
:100BE000DF9FFB709EFFFFFFF3F7EF3FFFFCF8F185
:100BF000E1C3C383878507050B0F0F0E0B0E0F058F
:100C00000383848687C3C7E2E1F1F8FEFFFFFFFF9D
:100C1000FFFFFFFFFFFFFFFFFFFFFFFFFFFFFFFFE4
:100C2000FFFFFFFFFFFFFFFFFFFFFFFFFFFFFFFFD4
:100C3000FFFFFFFFFFFFFFFFFFFFFFFFFFFFFFFFC4
:100C4000FFFFFFFFFFFFFFFFFFFFFFFFFFFFFFFFB4
:100C5000FFFFFFFFFFFFFFFFFFFFFFFFFFFFFFFFA4
:100C6000FFFFFFFFFFFFFFFFFFFFFFFFFFFFFFFF94
:100C7000FFFFFFFFFFFFFFFFFFFFFFFFFFFFFFFF84
:100C8000FFFFFFFFFFFFFFFFFFFFFFFFFFFFFFFF74
:100C9000FFFFFFFFFFFFFFFFFFFFFFFFFFFFFFFF64
:100CA000FFFFFFFFFFFFFFFFFFFFFFFF20202020D0
:100CB0006162636465666768696A6B6C6D6E6F70AC
:100CC0007172737475767778797A31323334353658
:100CD00037383930524542545F2D3D5B5D5C233BD4
:100CE00027602C2E2F2020200102E30102E20102C6
:100CF000E00101080103E00103E20103E300010256
:100D0000E30102E20102E00101150103E00103E257
:100D10000103E300000000001800090000000000CB
:100D20002778042215281624172123782878130001
:100D300010000600070024780000000000000000FA
:100D40002A008152000000001C000A000000000080
:100D5000000012320C3808341131257800000500EB
:100D60001A000F000B0026780000000000000000B1
:100D700028442C22000000002B00167C00000000FC
:100D8000000014221D281B24192100000000417EB0
:100D9000407E380034000000000000000000000029
:100DA00000000000000000002D002E0000000000E8
:100DB00000000E32373836340D31000000003000AC
:100DC0002F00310033000000000000000000000090
:100DD00028442C220000000016001500000000002E
:100DE0002778092205280D241721237828780A005E
:100DF0001800080007002478000000000000000030
:100E00002A008352000000001000190000000000BA
:100E100000000B32063811341C31257800000F0019
:100E200013001D000E0026780000000000000000E6
:100E300028442C22000000002B00167C000000003B
:100E400000001A2233282F241B2100000000417EBD
:100E5000407E31003400000000000000000000006F
:100E600000000000000000002D002E000000000027
:100E700000000C323838380214310000000037000E
:100E80000400360012000000000000000000000016
:100E900028442C220000000027001E000000000053
:100EA00000001F222028212422210000000023000E
:100EB00024002500260000000000000000000000C3
:100EC0002A002C2200000000AA00A9000000000057
:100ED00000004F00510052005000000000003000A0
:100EE000D900DA004C000000000000000000000003
:100EF0000000000000DA0281FFD9F1DB20A4A62E59
:100F0000AF00A0C0D30000A1C8D30000AED580A818
:100F10001F408D14200000010101010101010101A8
:100F2000020202020202020202030303030303039A
:100F30000304040404040404050505050506060667
:100F40000606070707070708080808090909090A24
:100F50000A0A0B0B0B0C0C0C0D0D0D0E0E0E0F0FC9
:100F60000F10101111111212131314141515161657
:100F70001717181819191A1A1B1B1C1D1D1E1E1FC6
:100F80002020212222232424252626272829292A15
:100F90002B2C2D2D2E2F303132323334353637383D
:100FA000393A3B3C3D3E3F40414243444546474839
:100FB000494A4C4D4E4F50515354555658595A5B0F
:100FC0005D5E5F616264656668696B6C6D6F7072AF
:100FD000737577787A7B7D7E8082838587888A8C1B
:100FE0008E8F91939596989A9C9EA0A2A3A5A7A94F
:100FF000ABADAFB1B3B5B7BABCBEC0C2C4C6C9CB46
:10100000CDCFD1D4D6D8DBDDDFE2E4E7E9EBEEF0FB
:10101000F3F5F8FAFDFF00AF00AE05010902A101EA
:1010200085020901A10005091901290815002501FA
:101030009508750181020501093009311581257F67
:1010400095027508810609381581257F9501750877
:101050008106050C0A38021581257F9501750881E6
:1010600006C0C005010980A101850319012AB70046
:10107000150126B700950175108100C0050C090106
:10108000A101850419012AA002150126A0029501DB
:1010900075108100C005010906A101850605071923
:1010A000E029E7150025019508750181020507195A
:1010B0000029EF1500250195F07501810205081939
:1010C000012905950575019102950175039101C0EE
:1010D00005010906A101050719E029E71500250109
:1010E00095087501810295017508810105071900B0
:1010F00029FF150026FF00950675088100050819CF
:1011000001290515002501950575019102950175C7
:10111000039101C009023B00020100A0FA0904008A
:10112000000103010100092111010001224400070F
:101130000581030800010904010001030000000902
:10114000211101000122B6000705820320000112CF
:1011500001000200000008534601000100010200E6
:10116000010C0343006F0072006E00650000001068
:101170000366006F006F007300740061006E000072
:10118000000403090400000000000000000000004B
:10119000000000000000000000000000000000004F
:1011A0000000000000000000007E0F00D4FFFFFFE1
:1011B000C70000007800000000000000002A2B2873
:1011C000000000000000000000000000000000001F
:1011D00029000000002C1E3420212224342627253B
:1011E0002E362D3738271E1F202122232425263373
:1011F00033362E37381F0405060708090A0B0C0D75
:101200000E0F101112131415161718191A1B1C1D86
:101210002F3130232D350405060708090A0B0C0D64
:101220000E0F101112131415161718191A1B1C1D66
:101230002F3130354C0011241FBECFEFDAE0DEBF76
:10124000CDBF04B603FE18C08091D0069091D106A0
:10125000A091D206B091D3068730904BA740B04BF7
:1012600059F41092D0061092D1061092D206109224
:10127000D306E0E0F8E3099512E0A0E0B1E0E8E38E
:10128000F7E602C005900D92A638B107D9F726E01F
:10129000A6E8B2E001C01D92A03DB207E1F70E94AE
:1012A0006D2A0C9436330C9400009091C304937013
:1012B00061F081110BC094609093C30410924301BC
:1012C0008091C20481608093C2040895803110F03F
:1012D0009C63F2CF880F880F982BEECF482F209178
:1012E000BA049091810457E0291302C080E0089568
:1012F00030E0529FF001539FF00D1124EE57FB4F49
:101300008181681306C08081481303C085818111E3
:10131000EECF2F5F3F4F2770E7CFFC01AC014C5F52
:101320005F4F8FEF91E32191822728E030E087FF24
:1013300009C0880F892721503109C9F7E417F5073B
:1013400091F70895880FF7CF9091C304937071F0CF
:101350008093C4046093C504493708F048E740937C
:10136000C6048091C20481608093C2040895E8EDB0
:10137000F0E080818E7F80831092E2001092DA008C
:101380001092E100A0EEB0E08C9181608C9380819E
:101390008F77808319BCA7EDB0E08C918E7F8C9302
:1013A00080818F7E808310926A0408952091E400EA
:1013B0003091E50095E6A9012091EC00822F817023
:1013C00020FF06C08091E80080FF06C080E00895FD
:1013D0002091E80022FD1AC080917704882389F0CB
:1013E000853089F08091EB0085FD0FC02091E400ED
:1013F0003091E50042175307F9F29150E1F684E08D
:10140000089582E0089583E0089581E00895809131
:10141000790487FF13C08091E80082FF06C08091A5
:10142000E8008B778093E80004C0809177048111F5
:10143000F2CF0895809177048823D9F38091E80052
:1014400080FFF8CF8091E8008E77ECCF982F9093B3
:10145000E900242F762F50E0891731F07091EC00CD
:101460002091ED005091F00021FD07C09F5F973063
:1014700071F78093E90081E008953091EB003E7FA1
:101480003093EB003091ED003D7F3093ED003091D3
:10149000EB0031603093EB007093EC002093ED0093
:1014A0005093F0002091EE0027FDE0CF80E00895FA
:1014B000B0E0A0E0EEE5FAE00C948732C8EDD0E0B1
:1014C00088818F7E8883E7EDF0E080818160808372
:1014D00084E082BF81E080936A0488818E7F888364
:1014E00002EE10E0F80110821092DA0081EEC82EB0
:1014F000D12CF601108288818F778883888180685B
:10150000888388818F7D888319BC1092770410921C
:101510007804109276041092750490EEE92EF12C66
:10152000F70180818B7F808388818160888342E09E
:1015300060E080E00E94260AF60180818E7F808331
:10154000F801808181608083808188608083F701D9
:1015500080818E7F8083888180618883CDB7DEB76C
:10156000E8E00C94A332FC0180917F049091800408
:1015700086179707A0F06115710529F49091E8008E
:101580009E779093E80090E06115710551F49111F8
:1015900008C08091E80082FF34C080E00895BC015B
:1015A000F2CF809177048823C1F18530C1F1809119
:1015B000E80083FD30C08091E80082FDEACF809191
:1015C000E80080FFE1CF8091F3002091F200382FF6
:1015D0006115710519F02830310558F091E0283077
:1015E000310509F090E02091E8002E772093E80083
:1015F000CBCF81918093F100615071092F5F3F4FF4
:10160000E7CF80917704882341F0853041F08091C5
:10161000E80083FFBECF81E0089582E0089583E073
:10162000089580916C0408952FB7F8946091660432
:101630007091670480916804909169042FBF0895A8
:1016400090913F019923D1F09091630497FF16C0C8
:10165000E82FE695E695E695EE31E0F4F0E0E05708
:10166000FD4F282F277081E090E001C0880F2A9558
:10167000EAF780959281892382830895EAE8F2E06F
:101680009191891303C0DF0111971C9292E0E03918
:10169000F907B1F7089590913F019923C1F0909116
:1016A000630497FF14C0E82FE695E695E695EE31C2
:1016B000F8F4F0E0E057FD4F877021E030E001C022
:1016C000220F8A95EAF78281822B82830895AAE805
:1016D000B2E0EFEF90E02D91821751F0EF3F19F457
:1016E000211101C0E92F9F5F9630A9F7EF3F09F460
:1016F00008950E2E000CFF0BE857FD4FE6CFA3E038
:10170000B0E0E5E8FBE00C948D322091610430916B
:10171000620428173907A1F0909362048093610452
:10172000E0915F04F0916004309751F024E0298348
:101730009B838A830084F185E02DCE010196099573
:101740002396E2E00C94A932A3E0B0E0EAEAFBE0E1
:101750000C948D3220915D0430915E042817390776
:10176000A1F090935E0480935D04E0915F04F0919A
:101770006004309751F023E029839B838A8300849F
:10178000F185E02DCE01019609952396E2E00C94B7
:10179000A93280915B04882359F0E0915F04F091B5
:1017A0006004309729F00190F081E02D09950895AB
:1017B00080E008958091500480FD16C081FD16C020
:1017C00082FD16C080914F048823A1F0883280F4F6
:1017D00028E0829FC001112468E270E00E94B432C8
:1017E000862F672B39F0089582E0089584E00895EC
:1017F00088E0089581E008958091500480FD14C030
:1018000081FD14C082FD16C080914E04882381F0B2
:101810008E3180F420E5829FC00111246EE170E0DA
:101820000E94B432862F089584E1089588E20895D5
:1018300088E0089580E50895282F35EB2303C00143
:10184000112497FF04C080589109892F089580586A
:101850009F4FFBCFCF93DF932091CE063091CF06E1
:101860002E5C3440A901460F571F4130524020F0F2
:1018700060E072E0621B730B4091CC045091CD0488
:10188000FC01C901620F731FC1E0D0E08617970702
:1018900038F05093CD044093CC04DF91CF9108955C
:1018A0002491DC01A253BB4F3C91321781F02C9361
:1018B0009C01A5E036952795AA95E1F7DE0102C0C7
:1018C000AA0FBB1F2A95E2F79D014A2B532B0196C5
:1018D0003196DCCFFA01811101C0FB010995089511
:1018E00030915C04311123C08B3191051CF14B9771
:1018F000FC01EE0FFF1FDF01A80FB91FAA55BC4F57
:1019000011963C911197361307C03C91341304C0D3
:1019100012963C91321771F031E03093A503E80F35
:10192000F91FEA55FC4F61834083228303C08B314A
:101930009105F4F208951092A5030895E3ECF4E004
:10194000248130E1231B08F420E024838091C20429
:1019500081608093C2040895E3ECF4E0248130E1D7
:10196000230F08F42FEF24838091C20481608093B9
:10197000C2040895E3ECF4E0438120E1421B08F443
:1019800040E08181628190E00E94A4090895E3EC27
:10199000F4E0438120E1420F08F44FEF818162813E
:1019A00090E00E94A4090895E3ECF4E0628120E154
:1019B000621B08F460E08181438190E00E94A409E9
:1019C0000895E3ECF4E0628120E1620F08F46FEF28
:1019D0008181438190E00E94A4090895E3ECF4E042
:1019E0008181438162818850990B0E94A4090895E6
:1019F000E3ECF4E0818190E04381628108960E94EB
:101A0000A40908958091C30486958695815009F4B0
:101A10008FE00E94550908958091C30486958695AC
:101A20008F5F803108F081E00E94550908959BE0A6
:101A3000899F802D1124980F973308F096E3209109
:101A40005C04222321F09C3128F09BE108958B3126
:101A500008F48BE10895322F50E0FA01EE0FFF1FDA
:101A6000EC54FE4F91A9905297FD9195440F551F4C
:101A7000FA01EC51FE4F2081231B330B290F311D3E
:101A800097FD3A95620F0895622F0895E42FF0E0D4
:101A9000EE0FFF1FEC51FE4F408134EE439F412D6E
:101AA0001124E82FF0E050E0445E5F4FDA01A21B02
:101AB000B1099D01B7FF03C031952195310993E02C
:101AC000220F331F9A95E1F7AF01421B530B9A0186
:101AD00057FD20E0582F259F212D1124822F089596
:101AE000E42FF0E0EE0FFF1FEC51FE4F408134EE8B
:101AF000439F412D1124E72FF0E050E0445E5F4FFB
:101B0000DA01A21BB1099D01B7FF03C031952195F0
:101B1000310993E0220F331F9A95E1F7AF01421B81
:101B2000530B9A0157FD20E0279F212D1124722F7E
:101B300008950E94700C0895FF920F931F93CF9306
:101B4000DF93182F062FF42ED0E0C0E02F2D402F6A
:101B5000612FCE010E94990D2196C633D105B1F7B0
:101B6000CDB7DEB7E5E00C94A632FC019B010097EF
:101B700029F480E077FF2BC080E80895AC0197FF3F
:101B800004C044275527481B590BB901640F751F22
:101B900037FD10C0241B350BC901A5E0880F991F24
:101BA000AA95E1F70E94B43280E2861BF7FF0FC0CE
:101BB00081950895CB0165E0880F991F6A95E1F73B
:101BC000BA01621B730B0E94B43280E6EECF089517
:101BD000EF920F93CF93DF93D72FC82FC9010E1920
:101BE000BA010E94B50D602F681B7D2F8C2FDF91ED
:101BF000CF910F91EF900895EF920F931F93CF9392
:101C0000DF93D62FC72F182FC9010E19010FBA0164
:101C10000E94B50D081B202F219F212D1124822FFA
:101C20006D2F7C2FDF91CF911F910F91EF90089531
:101C3000EF920F931F93CF93DF93D62F172FC82FB9
:101C4000C9010E19070FBA010E94B50D702F781B3C
:101C5000719F712D11246D2F8C2FDF91CF911F91CA
:101C60000F91EF900895E82F86FDE0952E2F2F70AD
:101C700086FD2F5FE695E695E695E670F0E0E45583
:101C8000FE4F9181929F902D212D112492959F704E
:101C90002295207F922B2081920F87FD919580E8DD
:101CA000890F089540913B0150913C0125E038E0B7
:101CB000429FC001439F900D529F900D1124875E5B
:101CC000994C90933C0180933B01890F089530E03B
:101CD00020E0869F212D969F200D311D1124C901E2
:101CE0000895982F80915C04882329F081E09B312E
:101CF00028F080E003C081E09633D8F70895AF92D2
:101D0000BF92CF92DF92FF920F931F93CF93DF93F7
:101D1000362F472FE82FF0E0EA5EF04F71110FC029
:101D2000E4918E2F2E2F6E2F722FDF91CF911F9166
:101D30000F91FF90DF90CF90BF90AF900895C72F85
:101D4000D0E02491F22E022F10E056E0659FC001F2
:101D50001124EFEFF0E0BF010E946932832F90E081
:101D6000880F991F35E5369FD001379FB00D11249C
:101D70008A1B9B0B982F990F980F6F01CC1ADD0AC5
:101D8000C09ED001C19EB00DD09EB00D11248B2FEE
:101D9000499FA0011124452F55276F01C41AD50A68
:101DA000C09EA001C19E500DD09E500D11245F0118
:101DB000A91AB108AC9E6001AD9ED00CBC9ED00C9F
:101DC0001124CD2CDD24EC19FD09E09FE001E19FF9
:101DD000D00DF09FD00D1124ED2F62307105A1F0D0
:101DE00050F46115710509F49ECF6130710581F0E1
:101DF000EB2F852F98CF6430710569F080F0663045
:101E0000710509F490CFF4CFE22F2B2F8D2F8BCFBC
:101E1000E22F252F88CFEB2F822F2D2F84CF2B2F32
:101E20008F2DE52F80CFB0E0A0E0E9E1FFE00C943A
:101E300088328C01FC01E05BFD4F8081682349F111
:101E4000D090C504D091C604C091C404EC2EF12CEE
:101E50000E94520E282FC7018C549F4F68E671E0F4
:101E60000E94B4328E199F0997FD03969595879528
:101E70009595879523706C2F289F600D11247D2DDB
:101E80008D2F0E947F0E462F282F672FC8010E949A
:101E9000990DCDB7DEB7E7E00C94A432B0E0A0E036
:101EA000E4E5FFE00C9485325C01809140010E94E2
:101EB000170DC82F192F6091C70466958091BB0438
:101EC0009091BC040E94670EF82ED0E0CE01880FDE
:101ED000991F9C012C543E4F6901C11740F0812F7E
:101EE0000E94710ECDB7DEB7EAE00C94A132FE017C
:101EF000E05BFD4F808190914101892309F451C03D
:101F0000D601D0964C91D0974057550BD1962C9135
:101F10002052330B449FB001459F700D700D11246A
:101F2000229FC001239F900D900D1124860F971FB3
:101F3000082F8230910520F1EFEF813EBEE19B0733
:101F400038F4FC01B5E0F695E795BA95E1F7E85F5E
:101F5000F1E0AF2FAE0FBB27BB1FBD017595679595
:101F6000062F669FD001679FB00DB00D11248A1710
:101F70009B07E0F4EFEFE60FEF1758F70FEF0F0FA7
:101F80006091C4047091C5048091C604EF2CF501E2
:101F900009950E947F0E462F282F672FCE010E94A1
:101FA000990D2196F2E0CF0ED11C97CF6F3F41F3F0
:101FB000F1E0F60FE1CFEF92FF920F931F93CF93D3
:101FC000DF937C01809140010E94170DC82F192FCB
:101FD0006091C7046695669521E0620F08F46FEF83
:101FE0008091BB049091BC040E94670E082FD0E042
:101FF000C11740F0812F0E94710ECDB7DEB7E6E029
:102000000C94A532FE01E05BFD4F8081909141016F
:10201000892391F06091C4047091C5048091C60435
:10202000202F4C2FF70109950E947F0E462F282F55
:10203000672FCE010E94990D2196DACF80E0089596
:10204000F894E82FE295EF70F0E031A1282F2F707F
:1020500081E090E001C0880F2A95EAF7982F9095CB
:10206000932391A392A1892B82A3789408950F932F
:102070001F9380915B04882329F00E94140B1F9109
:102080000F9108950E94140B0091340310913503B1
:102090002091360330913703600F711F821F931F09
:1020A000EECF9091630492FF10C041E0282F24717D
:1020B000243009F040E031E0282F2871283009F061
:1020C00030E0431711F02CE0822793FF10C041E06D
:1020D000282F2471243109F040E031E0282F2871A5
:1020E000283109F030E0431711F02CE082273091BD
:1020F000640430FF10C051E0282F2171213009F015
:1021000050E041E0282F2871283009F040E05417B2
:1021100011F029E0822731FF10C041E0282F217102
:10212000213109F040E031E0282F2871283109F0F1
:1021300030E0431711F029E0822794FD877E08954F
:1021400082389105B9F1B0F48133910509F47DC06D
:1021500048F48932910509F46DC08A32910509F479
:102160007BC008958533910509F45FC089339105DB
:1021700009F10895833E9105D9F138F4803E910527
:1021800029F1823E910579F10895863E9105D9F1B4
:10219000873E910509F43EC0843E910541F52091AA
:1021A000640421FF24C08091630484FD19C087EE7C
:1021B00090E0089520916304237009F05AC02091A3
:1021C000640423FF14C089E290E008952091630421
:1021D00020FD38C03091640430FF09C024FF43C0A3
:1021E00090E080E008952091630422FDF7CF0895E8
:1021F0002091630422FD3AC03091640430FD39C05F
:1022000024FFF5CFEDCF2091630423FFF0CF24FD11
:10221000E7CFCDCF2091630423FD2EC0309164041D
:1022200031FFEECF84EE90E008952091630425FF06
:10223000DECFC9CF2091630425FD21C02091640425
:1022400023FFD5CF89E390E0D2CF2091630426FF0E
:10225000CECF8AE290E008952091630426FFC7CF95
:1022600081E390E0089583EE90E0089582EE90E09F
:10227000089580EE90E0089586EE90E0089585E35D
:1022800090E00895972F7830B8F46630A8F4853040
:10229000B0F470E026E0929F600D711D1124FB01E7
:1022A00090E3899FE00DF11D1124EE0FFF1FEC5EFE
:1022B000F24F85919491089580E090E0089581E037
:1022C000FCCF1F93CF93DF930E94A010EC01C115A8
:1022D00080E5D807F0F5C11580E4D80708F09CC068
:1022E000C03ED10520F5CD3CD10508F082C0C83AEA
:1022F000D10578F4C53AD10508F073C0C130D105D5
:1023000019F1209709F1C430D105F0F4D0E0C0E014
:102310001BC0C33CD105D0F7C85AD0E0CC0FDD1F9D
:10232000CE59DE4F0990D881C02DD4640DC0C1159F
:1023300080E2D80708F0D1C0C11581E0D80708F0C5
:102340005AC0C83ED10510F7CE01DF91CF911F9141
:102350000895C03682E5D80718F5C03482E5D8075D
:1023600008F06BC0C03282E5D80708F05FC0C11525
:1023700082E5D80708F497C02C2F2695269580E291
:10238000289F900111248C2F8370C1E0D0E002C0FF
:10239000CC0FDD1F8A95E2F7C22BD32BDD68D4CF9B
:1023A000C03A82E5D80760F4C03882E5D80708F45F
:1023B00059C0CF71D0E0DC2FCC27C46FD06AC4CF16
:1023C000C03C82E5D80708F462C0C03E82E5D80769
:1023D00008F09CCFDC2FCC27CC27DF71C06FD06AF0
:1023E000B3CFC55AD0E0C15ADE4FC881D0E0D06427
:1023F000ABCFD065A9CF8D2F0E945110182FCE01E1
:1024000099270E94A010C12FD0E0DC2FCC27CC2729
:10241000DF71C82BD92B98CFCE0199270E94A0102D
:10242000CC27DF70C82BD92BD06A8ECFCF71D0E0EC
:10243000DC2FCC27C16FD06A87CF2C2F269526950D
:10244000277080E2289F900111248C2F8370C1E0B7
:10245000D0E002C0CC0FDD1F8A95E2F7C22BD32B50
:10246000DC6872CF2C2F26952695277080E2289F56
:10247000900111248C2F8370C1E0D0E002C0CC0FFA
:10248000DD1F8A95E2F7C22BD32BDA685DCF8C2F44
:102490008F710E945110C82FD0E0DC2FCC27CC27A1
:1024A000DF71D06251CF8C2F8F710E94511055E097
:1024B000D695C7955A95E1F7CF70D0E0DC2FCC27A1
:1024C000282F30E084FF05C044E0220F331F4A95D7
:1024D000E1F7C22BD32BD06937CF8D2F8F710E949C
:1024E0005110182FCE0199270E94A010C12FD0E0C3
:1024F000DC2FCC27CC27DF71C82BD92BD2CF8095EE
:102500009091FC0298239093FC0208958091FC0224
:102510009091D302892B9091D202992391F0892B2B
:1025200090913F01992371F09091630497FF0AC045
:102530009EE122E932E040E0915040F441111092D6
:10254000D202089596E02AE832E0F5CFF9015191E0
:102550009F01552389F34F5FEFCF8091BA0490918B
:102560008104981301C008958F5F8770FACFB0E09F
:10257000A0E0EDEBF2E10C9486327C0100915A036D
:1025800010915B038091420390914303082B192B18
:10259000CFE0D0E0CC24C394D12CBC2EC6010C2EAD
:1025A00002C0880F991F0A94E2F780239123892B98
:1025B00049F4219790F7B12C8B2DCDB7DEB7E9E028
:1025C0000C94A232B7018C2F0E9442110E9461111B
:1025D000019779F3F1CFCF93DF93EC010E94B7120B
:1025E000BE010E9442110E946111DF91CF910895B6
:1025F000983078F5863068F5E82FF0E086E0989F0F
:10260000E00DF11D11249E2F977083E0F695E7955C
:102610008A95E1F7EE0FFF1FEE0FFF1FEE54FD4FFF
:1026200050E040E080E0219130E0092E02C0369574
:1026300027950A94E2F721703327042E01C0220F58
:102640000A94EAF7822B4F5F5F4F4430510559F7E8
:10265000089580E00895983098F5863088F5E82F41
:10266000F0E086E0989FE00DF11D11248E2F877019
:1026700041E001C0440F8A95EAF783E0F695E795BB
:102680008A95E1F7EE0FFF1FEE0FFF1FEE54FD4F8F
:1026900030E020E070E05191DF011197CB01022E74
:1026A00002C0969587950A94E2F7817081958527F7
:1026B000842385278C932F5F3F4F2430310559F7B2
:1026C000089590935B0380935A03089521E030E0CE
:1026D00002C0220F331F8A95E2F720953095809132
:1026E0005A0390915B03822393230E946113089500
:1026F0009091D102809589238093D102282F277051
:1027000069F4891759F09091640492FF07C0869587
:10271000869586950E9466131092D102089521E055
:1027200030E002C0220F331F8A95E2F780915A03EE
:1027300090915B03822B932B0E94611308959093D9
:102740004303809342030895FC0124812223C1F0B6
:10275000808191810E94EB1292959F70963091F04A
:1027600058F4925F9F70923058F4803F19F030F423
:10277000883E30F481E008959A5FF4CF843FD1F32E
:1027800080E00895883EB0F3813FD1F7F3CFA6E013
:10279000B0E0EDECF3E10C948C3249835A8349812B
:1027A0005A819923A1F0222391F0CA010E94B71205
:1027B000182F682F89819A810E942B1369817A8151
:1027C000812F0E9442112696E3E00C94A832CA01A0
:1027D0000E94F812182FF2CF80913F01882359F1FF
:1027E0008091630487FF27C00E9486128093910224
:1027F00040E250E064ED72E080E992E00E94CE3267
:10280000892BC1F080E2E0E9F2E0A4EDB2E00190B2
:102810000D928A95E1F7E0915F04F09160043097A2
:1028200049F086E0809390020480F581E02D80E9F4
:1028300092E0099508950E9486128093880248E0EC
:1028400050E064EF72E088E892E00E94CE32892B7B
:1028500089F388E0E8E8F2E0A4EFB2E001900D929D
:102860008A95E1F7E0915F04F0916004309711F3ED
:102870000280F381E02D88E892E0DBCF882321F00D
:102880000E947F120E94EC130895882339F09091E2
:10289000FC02982B9093FC020E94EC1308950F9376
:1028A0001F93CF93DF938B01EA01909177049430CB
:1028B00061F58093E9008FEF9091E800815095FDDC
:1028C00006C095ED9A95F1F700008111F5CF809142
:1028D000E80085FF1AC00E94D609811111C08091BD
:1028E000E80085FD06C08091E8008E778093E800BF
:1028F000F2CFF80181918F018093F100219779F750
:102900008091E8008E778093E800DF91CF911F914E
:102910000F91089543E050E0BC0182E00E944F1403
:10292000089546E050E0BC0182E00E944F140895F3
:1029300040E250E0BC0182E00E944F140895CF9322
:10294000DF93EC0148E050E0BC0181E00E944F14AD
:1029500088E0FE01ADE6B4E001900D928A95E1F7C2
:10296000DF91CF91089581E08093E00080E2809331
:10297000D8001092C9008FE19EE40197F1F700C0E2
:10298000000087E090EBDC018093D0069093D106A5
:10299000A093D206B093D30688E19CE00FB6F894DA
:1029A000A895809360000FBE90936000FFCF809148
:1029B000A503882341F1539A3BB1377F2BB128609F
:1029C0004FB7F89486EA93E0FC015191CF0168E09B
:1029D0002BB9000000C057FF3BB9550F000000C0E5
:1029E00000C000C03BB900C06A9591F7F4E088349C
:1029F0009F0751F74FBF8FE594E00197F1F700C0B3
:102A000000001092A5030895B0E0A0E0EAE0F5E12F
:102A10000C9485327C015B016A018091330301E0F3
:102A200010E08A3010F40AE010E0C1E0D0E0B50117
:102A3000C701F6010995811104C021960C171D07E5
:102A40002CF4CDB7DEB7EAE00C94A132CC9F900114
:102A5000CD9F300D300D112490E080E045E34A9584
:102A6000F1F70000019682179307C1F7E0CFAB01A1
:102A700024E630E0BC0188E70E941D3021E0892B6C
:102A800009F020E0822F089580914C0490914D042C
:102A9000911103C091E089270895882369F062E0CD
:102AA00070E088E190E10E943715811103C08091A8
:102AB0004C04089510924C0480914C04EBCFCF93BA
:102AC000C0914C0480914D048823D1F00E94140BD6
:102AD000605A75418F4F9F4F60934804709349042B
:102AE00080934A0490934B04C11108C062E070E0E7
:102AF00086E190E10E943715811105C0C0914C0418
:102B00008C2FCF91089581E080934C04F7CFB0E0F3
:102B1000A0E0EDE8F5E10C947F320E94371060935D
:102B20008503709386038093870390938803309185
:102B3000C304C32FC37019F0C32FC695C695209147
:102B400043012130D9F0222359F0223009F4C7C2C1
:102B5000233009F4CEC2CDB7DEB7E0E10C949B324E
:102B6000109240016093BB047093BC048093BD0439
:102B70009093BE0481E080934301EDCF90913E019C
:102B800081E0C9130BC0832F837020913D0130E099
:102B900091E08217130609F490E0892F81708093E9
:102BA00042018091C80490914101981739F08093B7
:102BB000410140E060E080E00E949C0DC03180F463
:102BC000EC2FF0E0E85CFC4C0C94C83280914201A0
:102BD000882309F41FC140E060E080E00E949C0D62
:102BE00080E018C1809140010E94170D082FD92F55
:102BF0006091C4047091C5048091C6040E947F0E48
:102C0000F62EE72ED82E10E00D1720F08D2F0E9403
:102C1000710E00C1F801E05BFD4F80819091410190
:102C2000892331F02D2D4F2D6E2DC8010E94990D55
:102C30000F5F1F4FE9CF809140010E94170D082FB1
:102C4000F92EE090C5041091C604D091C4046D2FF4
:102C50007E2D812F0E947F0ED62EC72EB82E60911A
:102C6000C7046D0F7E2D812F0E947F0ED62FE72E79
:102C7000A82E10E00F1510F08F2DC9CFF801E05BE2
:102C8000FD4F908180914101892359F02A2D4D2FCC
:102C90006E2D90FD03C02B2D4D2D6C2DC8010E9473
:102CA000990D0F5F1F4FE6CF809140010E94170DD5
:102CB000F92EE090C504D090C6042091C704D0E45A
:102CC0003D2F329F312D1124D32F082F10E00F15E7
:102CD00098F6F801E05BFD4F8081909141018923D6
:102CE000B9F0F801EE0FFF1FEC54FE4F81A9829559
:102CF0008F706091C4048D9F600D11247E2D8D2DE9
:102D00000E947F0E462F282F672FC8010E94990D21
:102D10000F5F1F4FDCCF809140010E94170DF92EED
:102D2000E090C504D090C6042091C704D0E43D2FA4
:102D3000329F312D1124D32F082F10E00F1508F0EA
:102D40009BCFF801E05BFD4F808190914101892389
:102D5000D9F0F801EE0FFF1FEC54FE4F60A9D69F8B
:102D6000B001112425E0759567952A95E1F78091CA
:102D7000C404680F7E2D8D2D0E947F0E462F282FB4
:102D8000672FC8010E94990D0F5F1F4FD7CF809109
:102D900040010E94170D082FD92FF090C404109104
:102DA000C504E090C6046091C70466956695669573
:102DB0008091BB049091BC040E94670E0E94330E68
:102DC000805887FD8195880F282F3E2D239F212D28
:102DD0001124822F6F2D712F0E947F0EF62EE72E69
:102DE000D82E10E00D1708F011CFF801E05BFD4F71
:102DF000808190914101892331F02D2D4F2D6E2D31
:102E0000C8010E94990D0F5F1F4FECCF80E79DE036
:102E10000E94DB0F9091400121E0290F2093400197
:102E200081115AC182E08093430180914201811156
:102E300053C1CC2309F45BC1892F0E94170D8BCE9F
:102E400086E49DE0E5CF88E19EE00E944E0FE2CF50
:102E50008CEF9DE0FACF84E49DE0DACF8BE29DE039
:102E6000D7CF88EE9DE0F1CF809140010E94170DF1
:102E7000D92F90914201911120C06091C70420E1A7
:102E8000620F08F46FEF8091BB049091BC040E9424
:102E9000670E6AE070E00E946932892B09F0B6CEB5
:102EA0000E94520EE6E38E9FC00111246091410101
:102EB000892F90E00E94130FA9CE082F10E0ED2E6D
:102EC000F12C0E151F050CF0A1CE60914101C80137
:102ED0000E94130F0F5F1F4FF4CF809140010E949B
:102EE000170D082FF92EE090C5041091C604D0915B
:102EF000C4046091C7046695669566958091BB048D
:102F00009091BC040E94670E0E94330E805887FD8A
:102F10008195880F682F2CE0629F612D11246D0F21
:102F20007E2D812F0E947F0ED62FE72ED82E10E007
:102F30000F1508F0A1CEF801E05BFD4F8081909164
:102F40004101892331F02D2D4D2F6E2DC8010E9496
:102F5000990D0F5F1F4FECCF80914201882329F01C
:102F600040E060E080E00E949C0D809140010E9462
:102F7000170D592E4091BB045091BC046091BD04C3
:102F80007091BE048091A1039091A203A091A3032C
:102F9000B091A40384179507A607B70708F084C06B
:102FA0006091C4047091C5048091C6040E947F0E94
:102FB000D62F772E682E89E8E82E83E0F82E04EBD2
:102FC00011E0580148016701412C02C04424439498
:102FD000F60121916F01F40181914F0190E02223CC
:102FE00009F464C0262D4D2F672D0E94990DF5011F
:102FF0008581262D4D2F672D90E00E94990DF601B9
:10300000808131978083F1E0AF1AB10821E042124C
:10301000DDCFF801828190E0F7012281222309F4BB
:1030200050C0262D4D2F672D0E94990DF8018381E8
:10303000262D4D2F672D90E00E94990D0E94520E73
:10304000837091E009F090E0F7019283F3E0EF0ED6
:10305000F11C0A5F1F4F21E0043E120709F0B1CFB7
:103060002091C70430E1230F08F42FEF60E1822F95
:1030700090E00E94670EBC0188EB9BE00E946932E1
:103080008091BB049091BC04A091BD04B091BE049A
:10309000860F971FA11DB11D8093A1039093A203DA
:1030A000A093A303B093A403852DB1CD20E040E00D
:1030B00060E00E94990DF501858120E040E060E02C
:1030C0009BCF20E040E060E00E94990DF8018381F1
:1030D00020E040E060E0AFCFC111AECE3CCDC09368
:1030E0003E01832F837080933D010E94D71483E0BB
:1030F00042CD8091C204882351F048E050E068E15D
:1031000070E083EC94E00E9402331092C204C090FD
:10311000BB04D090BC04E090BD04F090BE0480914C
:103120005B048823C1F02FB7F89460916604709116
:10313000670480916804909169042FBF6C197D0920
:103140008E099F09603171058105910508F403CD51
:103150001092430100CD0E943710F0CF909164048B
:1031600092FB222720F9281779F080FB92F990939F
:103170006404609163047091640484E090E00E94B0
:10318000303382E00E9478130895A4E0B0E0EBECC5
:10319000F8E10C948C3240912B0350912C036091F8
:1031A0002D0370912E032FB7F894809166049091AF
:1031B0006704A0916804B09169042FBF841B950B2C
:1031C000A60BB70B11E084369105A105B10570F18E
:1031D0000E9437106E5F7F4F8F4F9F4F69837A83B6
:1031E0008B839C838091190190911A018B5E9C4F77
:1031F0004091180150E04530510510F044E050E096
:10320000BE016F5F7F4F0E94DB3283E090E00E943F
:10321000F331182F882351F00E94140B60932B0375
:1032200070932C0380932D0390932E03812F24966B
:10323000E3E00C94A832EF92FF921F93CF93DF93B9
:1032400000D000D00F92CDB7DEB77B0190E080E0D8
:103250000E94F331182F882309F487C0409103019D
:1032600050E04115510511F041E050E0609104013A
:10327000709105016B5E7C4FCE0105960E94DB329A
:1032800040910D0350910E0360910F037091100354
:103290002FB7F8948091660490916704A091680418
:1032A000B09169042FBF841B950BA60BB70B843616
:1032B0009105A105B10540F486E193E00E948D09D6
:1032C0009D81891709F451C081E090E00E94F3319B
:1032D00081111AC010E08091090390910A03A09116
:1032E0000B03B0910C03F70180839183A283B38316
:1032F000812F0F900F900F900F900F90DF91CF9133
:103300001F91FF90EF90089540910B0150E04530E0
:10331000510510F044E050E060910C0170910D01F6
:103320006B5E7C4FCE0101960E94DB3286E193E01A
:103330000E948D099D818913CDCF0E94140B60934B
:103340000D0370930E0380930F03909310038981F4
:103350009A81AB81BC818093090390930A03A09367
:103360000B03B0930C0311E0B6CF8091160390913C
:103370001703A0911803B091190389839A83AB8333
:10338000BC831111E4CFA7CF4F925F926F927F92CF
:103390008F929F92AF92BF92EF92FF920F931F93E3
:1033A000CF93DF937B01FB0140805180628073806B
:1033B0009FB7F8948090660490906704A09068048A
:1033C000B09069049FBF84189508A608B708F4E672
:1033D0008F169104A104B10418F4C1E0442329F12B
:1033E000C82F880FDD0BFE0183E0EE0FFF1F8A95CB
:1033F000E1F7E050FF4F818192818B5E9C4F4081CD
:1034000050E00417150708F4A801B9010E94DB3247
:10341000CE010E94F331C82F882339F00E94140B8B
:10342000F70160837183828393838C2FDF91CF9127
:103430001F910F91FF90EF90BF90AF909F908F9052
:103440007F906F905F904F900895A9E0B0E0EBE21D
:10345000FAE10C948B3288E0E3ECF4E0DE011196A3
:1034600001900D928A95E1F7198649E050E062E2F9
:1034700073E0CE0101960E94CE3241E0892B09F41F
:1034800040E009E010E09E012F5F3F4F6FE273E0E4
:1034900084E00E94C4192996E4E00C94A7320F93AB
:1034A0001F93CF93DF93EC0144E050E06AE173E0B7
:1034B0000E94CE3241E0892B09F440E004E010E0A4
:1034C0009E0161E173E082E00E94C419DF91CF9117
:1034D0001F910F9108951F920F920FB60F92112412
:1034E0002F933F934F935F936F937F938F939F930C
:1034F000AF93BF93EF93FF938091E10082FF09C0E8
:103500008091E20082FF05C08091E1008B7F809373
:10351000E1008091DA0080FF24C08091D80080FF14
:1035200020C08091DA008E7F8093DA008091D900EC
:1035300080FF9DC080E189BD82E189BD09B400FEA4
:10354000FDCF81E08093770480916A04811109C0E6
:103550000E94B7090E94580A8091E200846080931B
:10356000E2008091E10080FF17C08091E20080FFBF
:1035700013C08091E2008E7F8093E2008091E20090
:1035800080618093E2008091D80080628093D800AF
:1035900019BC85E0809377048091E10084FF2BC003
:1035A0008091E20084FF27C080E189BD82E189BD6E
:1035B00089B5982F917080FFFBCF8091D8008F7DC7
:1035C0008093D8008091E1008F7E8093E10080910C
:1035D000E2008F7E8093E2008091E2008160809320
:1035E000E20080917804882309F447C084E0809346
:1035F0007704809177048091E10083FF27C0809158
:10360000E20083FF23C08091E100877F8093E10087
:1036100082E080937704109278048091E1008E7F9D
:103620008093E1008091E2008E7F8093E2008091A0
:10363000E20080618093E20042E060E080E00E946E
:10364000260A8091F00088608093F000FF91EF914E
:10365000BF91AF919F918F917F916F915F914F91AA
:103660003F912F910F900FBE0F901F90189519BC8E
:103670001092770410926A0474CF8091E30087FD62
:1036800093E090937704B5CF78941F921FB61F9262
:1036900011248F939F93AF93BF9380916604909171
:1036A0006704A0916804B09169040196A11DB11D41
:1036B0008093660490936704A0936804B0936904B0
:1036C000BF91AF919F918F911F901FBE1F90189532
:1036D0009C014FB7F8948091660490916704A09183
:1036E0006804B09169044FBF821B930B08952FB7F4
:1036F000F8948091660490916704A0916804B09159
:1037000069042FBF08950E94771B9C019091570474
:1037100080915804982B21F0309354042093530443
:103720009091590480915A04982B21F030935204BF
:1037300020935104E0915F04F0916004309749F0C8
:1037400082E0809355040680F781E02D85E594E0C2
:10375000099508951092FC0280913F01882339F168
:103760008091630487FF23C0E2E9F2E08EE1DF018C
:103770001D928A95E9F790E080E00E94A40B90E00A
:1037800080E00E947F0B1092D3020E94EC1386E02F
:10379000E5E5F4E0DF011D928A95E9F710924E0409
:1037A00010924F04109250040E94831B0895EAE87F
:1037B000F2E086E0DCCFAAE2B0E0E1EEFBE10C94BF
:1037C0008C3289E794E02091F100FC012193CF0134
:1037D000F4E081389F07B9F780917A04833009F4C7
:1037E00070C0B8F4813009F447C0823009F4B1C028
:1037F0008091E80083FF7EC28091790490917A04E1
:103800009A3008F077C2E92FF0E0E85BFC4C0C94AA
:10381000C8328A3009F48CC08B3009F46FC089300B
:1038200039F780917904813219F780917D04909164
:103830007E040297E8F68091E800877F8093E80095
:103840008091E80082FF38C09091F3008091F200EF
:10385000029731F48091F100813011F0863021F42B
:103860008091F10080936C048091E8008B778093C5
:10387000E8000E94070ABCCF80917904813A09F0E0
:10388000B7CF8091E800877F8093E80080917D0426
:1038900090917E04892B61F468E08DE694E070E0FD
:1038A0000E94B30A8091E8008B778093E800A0CF54
:1038B00060E090E080E0F3CF809177048111C0CF89
:1038C00097CF80917904813A09F092CF80917D045D
:1038D00090917E04892B09F08BCF8091E800877F3F
:1038E0008093E8008091E80080FFFCCF80913F0149
:1038F0008093F1008091E8008E77B9CF80917904B0
:10390000813209F075CF80917D0490917E04892BDE
:1039100009F06ECF8091E800877F8093E8000E94D5
:10392000070A80917B0480933F010E94AA1B60CF0D
:1039300080917904813209F05BCF8091E800877F24
:103940008093E8000E94070A80917C0480936B04B6
:103950004FCF80917904813A09F04ACF8091E800F5
:10396000877F8093E8008091E80080FFFCCF809102
:103970006B04BECF803899F0823809F0BBC18091CA
:103980007D048F70873008F0B5C18093E900809185
:10399000EB0085FB882780F91092E90006C0809132
:1039A000750490917604911182609091E800977F60
:1039B0009093E8008093F1001092F1008091E8006C
:1039C0008E7794C1882309F482C1823009F092C1B4
:1039D00080917B04811185C180917D048F702FEFD0
:1039E000280F263008F086C18093E9002091EB0073
:1039F00020FF77C1933031F48091EB008062809397
:103A0000EB006FC19091EB0090619093EB0021E08F
:103A100030E001C0220F8A95EAF72093EA00109265
:103A2000EA008091EB008860EACF811163C11091B8
:103A30007B041F778091E3008078812B8093E300E3
:103A40008091E800877F8093E8000E94070A8091B8
:103A5000E80080FFFCCF8091E30080688093E30062
:103A600082E0111183E08093770444C18058823052
:103A700008F040C180917B0490917C048C3D23E050
:103A80009207A1F583E08A838AE289834FB7F8948D
:103A9000DE01139620E03EE051E2E32FF0E0509388
:103AA0005700E49120FF03C0E295EF703F5FEF7095
:103AB0008E2F90E0EA30C0F0C7968D939D932F5FD4
:103AC000243159F74FBF8091E800877F8093E80049
:103AD0006AE270E0CE0101960E94B30A8091E8008C
:103AE0008B778093E80006C1C096E7CF40917D04B4
:103AF00050917E04292F33272330310509F444C027
:103B000078F52130310509F46FC08BE390E0E4E1F2
:103B1000F1E12230310509F0EDC02091E800277F66
:103B20002093E80020917F0430918004821793074E
:103B300008F49C0140E02115310509F064C04111F1
:103B400062C08091E80082FDC9CF8091770488230C
:103B500029F2853019F28091E80083FFF2CFBECFC1
:103B600021323105A9F12232310509F0C3C04115D6
:103B7000510509F443C04130510509F0BBC086EB43
:103B800090E0EAE1F0E1C9CF992781309105C1F0D9
:103B9000009759F0029709F0ADC0E1E6F1E1E49138
:103BA0008E2F90E0E1E6F1E107C0E1E8F1E1E49178
:103BB0008E2F90E0E1E8F1E1009709F49BC0ADCFD2
:103BC000EFE6F1E1E4918E2F90E0EFE6F1E1F4CF42
:103BD0004115510571F04130510509F08BC089E064
:103BE00090E0EFE3F1E199CF82E190E0EFE4F1E1E1
:103BF00094CF89E090E0E6E2F1E18FCF84E490E0B9
:103C0000E0EDF0E18ACF80917704882309F466CF54
:103C1000853009F463CF8091E80083FD5FCF809108
:103C2000E80082FD8ECF8091E80080FF84CF9091E4
:103C3000F3008091F2002115310519F088309105CB
:103C400050F041E0089709F040E08091E8008E775D
:103C50008093E80070CF44914093F1003196215059
:103C600031090196E8CF803809F044C08091E8001E
:103C7000877F8093E800809178048093F1009ECE46
:103C8000811138C010917B041230A0F58091E800BA
:103C9000877F8093E800109378040E94070A11231D
:103CA00011F084E005C08091E30087FDFACF81E048
:103CB0008093770442E061EC81E00E94260A42E2B0
:103CC00061EC82E00E94260A8091770413C0809103
:103CD0007B04813079F481E0933009F080E08093B7
:103CE00076041092E9008091E800877F8093E800D5
:103CF0000E94070A8091E80083FF0AC08091E800D3
:103D0000877F8093E8008091EB0080628093EB00D6
:103D1000AA96E3E00C94A8321F920F920FB60F926E
:103D200011242F933F934F935F936F937F938F93C0
:103D30009F93AF93BF93CF93DF93EF93FF93D09174
:103D4000E900DF708091EC00C82FC17080FDC0E8F1
:103D50001092E9008091F000877F8093F0007894C2
:103D60000E94DB1B1092E9008091F0008860809334
:103D7000F000CD2BCF70C093E900FF91EF91DF9160
:103D8000CF91BF91AF919F918F917F916F915F91F3
:103D90004F913F912F910F900FBE0F901F9018954C
:103DA0000E94AA1B2FEF84E39CE0215080409040AA
:103DB000E1F700C0000088E19CE00FB6F894A895F8
:103DC000809360000FBE90936000FFCF4091570436
:103DD0009091590420915A04662309F469C0942BE8
:103DE000922B20915804922B31F098E090934E043E
:103DF00091E090934F048D3C41F40E94FC0B81951F
:103E0000809358040E94831B08958E3C19F40E94ED
:103E1000FC0BF6CF8F3C31F40E94FC0B8195809314
:103E20005704F0CF803D19F40E94FC0BF8CF893D78
:103E300029F40E94DA0B80935904E4CF8A3D21F4DF
:103E40000E94DA0B8195F7CF8B3D31F40E94DA0B9B
:103E5000819580935A04D6CF8C3D19F40E94DA0BD9
:103E6000F8CF9FE2980F983070F4815D990B21E0B4
:103E700030E001C0220F8A95EAF780915604822B28
:103E800080935604BFCF8D3D31F480915004816002
:103E900080935004B7CF8E3D21F48091500482600E
:103EA000F7CF8F3D09F0AECF809150048460F0CF02
:103EB0008D3C59F48091580487FF0DC0109258042E
:103EC00041110BC010924E0408C08E3C81F48091C9
:103ED000580418169CF3442381F080915904909162
:103EE0005A04892B09F08ECF10924F048BCF8F3C50
:103EF00049F447FFF0CF1092570480915804811184
:103F0000ECCFE0CF803D19F41416ACF3E4CF893D3B
:103F100029F4191604F710925904DDCF8A3D19F4DB
:103F200097FFD9CFF8CF8B3D29F427FFD4CF10923C
:103F30005A04D1CF8C3D19F41216CCF3CCCF9FE2AA
:103F4000980F983090F4815D990B21E030E0B90131
:103F500002C0660F771F8A95E2F7CB01809590919A
:103F60005604892380935604B6CF8D3D31F4809159
:103F700050048E7F80935004AECF8E3D21F480910B
:103F800050048D7FF7CF8F3D09F0A5CF809150046D
:103F90008B7FF0CF882381F19CEF980F913A28F422
:103FA0000E94200B0E94EC13089590E2980F983025
:103FB00050F4877091E001C0990F8A95EAF7892F34
:103FC0000E947F12EFCF9BE5980F933028F490E08A
:103FD00080E00E94A40B089598E5980F9B3128F487
:103FE00090E080E00E947F0B089593E3980F933157
:103FF00018F460E00E94E61E0895CF93C82F88232E
:10400000B1F18CEF8C0F813AA0F580913F018823AC
:1040100001F18091630487FF1CC0EC2FE695E695C3
:10402000E695F0E0E057FD4F828190E04C2F47701D
:1040300021E030E002C0220F331F4A95E2F78223CD
:104040009323892B79F08C2F0E94200B0E94EC1374
:1040500009C0EAE8F2E08191C817A9F382E0E039EB
:10406000F807C9F78C2F0E944B0B0E94EC13CF91DD
:10407000089580E28C0F883068F4C77021E030E04A
:1040800001C0220FCA95EAF78091FC02822B80932F
:10409000FC02EBCFEBE5EC0FE33040F4F0E0E15A4B
:1040A000FE4F808190E00E94A40BE1CFE8E5EC0F89
:1040B000EB3150F4F0E0EE0FFF1FEE59FE4F808120
:1040C00091810E947F0BD3CF83E38C0F833178F6ED
:1040D00061E08C2F0E94E61ECACF1F93CF93DF931F
:1040E000182FEB010E94FD1F209739F4812F0E94A9
:1040F000CA1FDF91CF911F9108958FE99FE001972B
:10410000F1F700C000002197EFCF0F931F93CF93DB
:10411000DF93C62FD42F022FFC0185818823A9F0BD
:104120006093C1040E94771B9093C0048093BF04E6
:10413000C77081E001C0880FCA95EAF70E94451454
:10414000DF91CF911F910F9108958091C104681361
:1041500034C08091BF049091C0040E94681B883CC9
:10416000910558F510E21D0FCD17B9F080E28C0FC4
:10417000883040F4C77081E001C0880FCA95EAF723
:104180000E943E14183048F481E09D2F977001C0C2
:10419000880F9A95EAF70E94451470E060E0802F3E
:1041A0000E946D20183060F6D77081E001C0880F42
:1041B000DA95EAF70E943E14C3CFC77081E001C0D0
:1041C000880FCA95EAF7F6CFB0E0A0E0EAEEF0E299
:1041D0000C948532EC018AE0A82EFE012491222362
:1041E00009F4A1C0213009F044C031968491813096
:1041F00061F42296FE01849170E060E0893311F44D
:1042000060E570E00E946D2007C0823039F422968C
:10421000FE0184910E94FD1F2196DFCF833031F48F
:104220002296FE0184910E94CA1FF6CF843009F0C5
:1042300078C02296FE01249190E080E0FE01319644
:104240002053330B2A30310548F0019728F3EFE96A
:10425000FFE03197F1F700C00000F7CFA89EA00162
:10426000A99E500D1124C901840F951F2491EF01BF
:10427000E5CFE22FF0E0EB54FE4EB490822F86950E
:104280008695869590E0FC01EB55FE4EE4902770F4
:10429000F12C022E02C0F594E7940A94E2F731E083
:1042A000E322FF24FC01EB56FE4EC490D12C022EDB
:1042B00002C0D594C7940A94E2F7E1E0CE22DD244F
:1042C000FC01EB57FE4E049110E002C015950795D6
:1042D0002A95E2F701701127E114F10419F081EE3B
:1042E0000E94FD1FC114D10419F086EE0E94FD1F2B
:1042F00070E060E08B2D0E946D20C114D10419F094
:1043000086EE0E94CA1FE114F10419F081EE0E94AA
:10431000CA1F0115110509F47FCF70E060E08CE23F
:1043200071CFEF0179CFCDB7DEB7EAE00C94A132BF
:10433000B0E0A0E0EEE9F1E20C9485328C01FC01E2
:104340008481882309F46EC021E04081518162811B
:10435000738195810E94C713EC01F8018581882340
:1043600009F43FC4918190935F03908190935E0321
:1043700090E290933301D0935D03C0935C039E0160
:1043800030522115304230F4F8019681907FF1F0DF
:10439000FE010AC09E0130542115304110F5F8018C
:1043A0009681907FFE0109F0FF27ED33F10508F0BB
:1043B0000DC4E455F34FE491E0933301C0342EE78C
:1043C000D207E9F0C1343EE7D30789F1FE01E85195
:1043D000FC47E730F10508F04DC0EE5AFC4C0C9458
:1043E000C8329E013A9521153F4190F29E01205A14
:1043F00032452032310508F4E9C3FE01D6CF8EEFF5
:104400009CE00E94E4208091D102877059F0F8016D
:104410008581882339F08091640482FF03C082E0A3
:104420000E947813CDB7DEB7EAE00C94A13288235E
:1044300051F388EE9CE0E5CF26E241EE61EEC80143
:104440000E948520E0CF27E245EE65EEF8CF26E218
:1044500041EE60EEF4CF27E245EE64EEF0CF26E2C7
:1044600041EE62EEECCF27E245EE66EEE8CF28E2C1
:1044700041E0EBCF882309F4D3C31092C104CE01ED
:104480009057839708F0B8C384E090E00E94FC3214
:104490009093640480936304FE01E150F047E2329C
:1044A000F10520F4E75AFC4C0C94C8328091630467
:1044B00081608093630495C08091640488608093D8
:1044C00064048FC0809163048260F3CF80916304A1
:1044D0008460EFCF809163048860EBCF80916404A7
:1044E0008160EDCF809164048260E9CF80916304A4
:1044F0008061DFCF809163048062DBCF80916304B1
:104500008064D7CF0E94AA1B809163048068D1CFBA
:10451000809163048C60CDCF809164048360CFCFA1
:10452000809163048E7FC5CF80916404877FC7CF5D
:10453000809163048D7FBDCF809163048B7FB9CF61
:1045400080916304877FB5CF809164048E7FB7CF5D
:10455000809164048D7FB3CF809163048F7EA9CF57
:10456000809163048F7DA5CF809163048F7BA1CF61
:104570000E94AA1B809163048F779BCF8091630474
:10458000837F97CF809164048C7F99CF809163045F
:1045900082FB992790F921E0922790FB82F990FB0A
:1045A00083F987CF80916404982F909591708E7FC6
:1045B000892B90FB81F983CF90916304892F8F7BA6
:1045C00096FF806476CF0E94AA1B90916304892F86
:1045D00097FB87F980586DCF61E08EE090E00E94F4
:1045E0001233609163047091640484E090E00E944F
:1045F00030330E94AA1B07CF60E0EFCF9091630495
:10460000892F8F7E94FF806154CF90916304892F0E
:104610008E7F90FF81604DCF90916404892F877FBA
:1046200093FF88604CCF85E3F6C28091B002811180
:1046300004C089E20E94200BF0C285E3FBCF809189
:10464000C30491E089278093C304109243018091B1
:10465000C20481608093C204D6CE42E05DE06CE08B
:104660007DE00E946A0CCFCE4CE05DE062E07DE030
:10467000F8CF4EEE5CE068EF7CE0F3CF48EF5CE013
:104680006EEE7CE0EECF44ED5CE061EE7CE0E9CFE5
:1046900041EE5CE064ED7CE0E4CF4AEB5CE067EC8B
:1046A0007CE0DFCF47EC5CE06AEB7CE0DACF4EE900
:1046B0005CE06CEA7CE0D5CF4CEA5CE06EE97CE043
:1046C000D0CF81E00E9455099ECE85E0FBCF0E94AD
:1046D000AA1B8FEF94E3ECE081509040E040E1F7BB
:1046E00000C000000E94B3146FEF7FEF90E080E005
:1046F0000E9430330E94D01E8091640482FB882780
:1047000080F991E089270E94AE18F8018581C08167
:10471000D181882309F44DC0CE010E94B712F82E32
:10472000682FCE010E942B13BE018F2D0E944211D3
:104730000E946111D82EC92FA82EF801C580B6801D
:10474000B2949FE0B9228091D102877009F1FC2CCC
:10475000CC20F9F08C2F807F803469F080E28D0DC1
:104760008830B0F08C2F807E803229F4F1E0FD1586
:1047700078F4BB2069F08091640482FF09C082E074
:104780000E9478138091D1028770FF24F3948111E5
:10479000F12CEC2EE2948FE0E8222BE02E1508F4A9
:1047A0006AC0EE2DF0E0E558FC4C0C94C83280E075
:1047B000AACFCE010E94F812F82EB6CFDC2FDF7000
:1047C000C07F11F0D295D07FCC20B9F0DD2369F005
:1047D00080E28D0D883010F0A11009C08091FC029C
:1047E000D82BD093FC020E94EC138D2D42C08091F7
:1047F000D302D82BD093D302F6CF8D2D0E94CA1F9F
:10480000DD23C9F180E28D0D883010F0A11004C0C5
:104810008D2F0E947F1206C0D0958091D302D8239D
:10482000D093D3020E94EC1326C0DC2FDF70C07F30
:10483000C03211F0D295D07FAA2059F031E0A316F2
:1048400009F478C0CC2009F484C0BB2009F446C028
:10485000CCCF8091640482FD3DC0CC20A9F1DD2342
:1048600039F08091FC02D82BD093FC020E94EC130B
:1048700080E00E94FD1FEE2DE850FF0B349710F4EE
:104880000E94C90BFF20A9F08091D10280FD11C0C8
:10489000F80115828695869586950E948F13C8012A
:1048A0000E9498218091D1028695869586950E94D6
:1048B000661320E0F8014081518162817381848117
:1048C00095810E94C713AECD80E00E94CA1FDD23F0
:1048D00091F29ECFCC20A1F0B11004C08D2F0E9488
:1048E0004514C9CF81E0B812C6CF8091D2029D2F66
:1048F0009823D91709F4BFCFD82BD093D202BBCFBE
:10490000B110B9CF8D2F0E943E149091D2028D2FFD
:10491000892329F08D2F809589238093D20280915D
:10492000B1029D2F982309F4A6CFD095D823D09318
:10493000B102A1CFCC2029F095E09B1508F49BCFC4
:10494000CDCFE4E0EB1508F496CF8D2F0E943E14F6
:1049500092CFBB20D1F3F9E3AF1231C12FEF37EE85
:1049600083E0215030408040E1F700C0000027C1C3
:104970008C2F86958695837069F0813009F07BCF06
:104980008D2D9C2F9370C11002C080E090E00E949A
:104990007F0B71CF8D2D9C2F9370C11002C080E0D2
:1049A00090E00E94A40B67CF6C2D8D2D0E94E61E17
:1049B00062CF8C2F837009F03FC0C1105CCF4D2DAA
:1049C000429546954770440F440F2D2D2F7030E0CF
:1049D000042E02C0220F331F0A94E2F790E080E019
:1049E000D4FE09C08FE090E002C0880F991F4A955D
:1049F000E2F780959095C695C695C370C23099F040
:104A000078F44091420350914303C13039F0822B36
:104A1000932B842395230E949F132DCF242B352B7A
:104A2000822B932BF8CF822B932B20914203309132
:104A3000430382279327EFCF8695CC2011F08C2F4C
:104A40008170882309F417CF4D2D42954695477004
:104A5000440F440F2D2D2F7030E0042E02C0220F82
:104A6000331F0A94E2F790E080E0D4FE09C08FE0A3
:104A700090E002C0880F991F4A95E2F780959095C3
:104A8000C695C695C370C23099F078F440915A0328
:104A900050915B03C13039F0822B932B84239523F3
:104AA0000E946113E8CE242B352B822B932BF8CF59
:104AB000822B932B20915A0330915B0382279327FB
:104AC000EFCFCF70CC2029F08C2F0E948F138D2D2B
:104AD00006CF8D2D0E943E148C2F0E946613CBCEE4
:104AE0008D2D92EFA91699F19A1570F0E0EFAE16A0
:104AF000D1F0F1EFAF1691F0CC2009F45BC0B1100A
:104B000074CE8C2F8F7127C023EFA21639F134EFAA
:104B1000A312F2CF8091640482FD2EC08C2F8F717E
:104B2000CC20D9F218C0CC2069F084E08B1508F4B1
:104B3000A2CECF7181E090E002C0880F991FCA9584
:104B4000E2F7B8CF95E09B1508F495CEF2CF8C2F05
:104B50008F71C110C2CF0E948F138DCE90E080E084
:104B6000CC2009F49DCFCF7181E090E002C0880F86
:104B7000991FCA95E2F794CFCC2089F0CF718C2F82
:104B80000E948F138091640482FF07C0E8E0CE9FEB
:104B9000C001112483608093D1028C2FDCCF81E08F
:104BA0000E947813F1E0FB1508F065CE82E00E94C8
:104BB000781361CEBB2039F0893309F4CFCE8D2D27
:104BC0000E94CA1F58CE8C2F8F7187CFC034FEE74A
:104BD000DF0709F414CCC1342EE7D20709F429CC3D
:104BE000F5CBC0343EE7D30709F40DCCC1349EE7C2
:104BF000D90709F408CCEACBC631ECE7DE0719F592
:104C00008091FC028A7A91E009F490E09093B002DE
:104C1000811109CD89E20E944B0B0E94EC13F3CB6A
:104C2000C631FCE7DF0709F400CD8091FC028272F7
:104C3000FE01E052F847E531F10508F066CDE9578D
:104C4000FC4C0C94C832C3302CE7D20709F44CCD8D
:104C500050F4C1158CE7D80709F439CDC130DC47D1
:104C600009F448CD52CDCB35ECE7DE0709F49FCDF2
:104C7000CC35FCE7DF0709F43FCDCA35DC4709F046
:104C800044CD81E040CDCF93DF938091D002807FEF
:104C900009F04DC08091CF02882309F448C0E0910B
:104CA000BA0450918104C091CB02D091CA026091A4
:104CB000CC027091CD0247E05E17C9F18E2F90E0D3
:104CC000E49FF0011124EE57FB4F2481222391F140
:104CD000489FF001499FF00D1124DF01AE57BB4FF3
:104CE00011962C9111972C1325C02C912D1322C0B5
:104CF00015962C91159721111DC012962D913C915E
:104D0000261B370B283C3105A8F48091D0028F7008
:104D100080618093D002E857FB4F80818F70806163
:104D200080838AEC92E00E9498210E94AD12DF916C
:104D3000CF910895FC013196E770BECFA4E1B0E0B9
:104D4000E4EAF6E20C9483328C0186E0F801DE019D
:104D50001F9601900D928A95E1F7F8018481E58014
:104D60009AECA92E92E0B92E9091CE02911128C012
:104D7000882319F1EE20F1F0C8010E94A413F82E47
:104D80008823C1F087E0F801D50101900D928A9542
:104D9000E1F78091CE02813031F48091CA02909186
:104DA000CB020E94EB120E9443268F2D6496ECE00A
:104DB0000C949F32C8010E949821FF24F394F5CFF0
:104DC000D080C18082809380F090CF022091CC026D
:104DD0003091CD02A401421B530BFF2009F4D9C02E
:104DE000483C510508F092C08823F9F29091CB021B
:104DF0008091D002282F207F09F056C0C91214C01C
:104E00009091CA02D91210C0E11048C08F70806121
:104E10008093D0028AEC92E00E9498218091D00287
:104E2000F8018683F12CC1CFE11038C06C2D8D2D97
:104E30000E946E096C2D8D2D0E946E09E82E811145
:104E4000F1CFDF86C88A8F8598890E94EB12292FBF
:104E500022952F70243058F49F70223088F09923C7
:104E600099F0F8019681907F79F4FE2C9ECF2A5F0D
:104E70002F70223068F0C8010E949821EF2CF5CFE6
:104E8000992311F0882389F3805E883070F3F3CF83
:104E9000803F58F3815F833070F7E7CF8091D00275
:104EA00081608093D002BECFC91207C09091CA0220
:104EB000D91203C0EE2009F48DC0C8010E94A413CA
:104EC000882309F477CFEE2009F474CF8091D002C3
:104ED000803288F02091CA023091CB02398728872E
:104EE0009B868A869091CE029C871D868E87CE01F6
:104EF00008960E94982187E0F801AAECB2E00190A0
:104F00000D928A95E1F70E94432657CF9091D002E7
:104F1000292F207F51F48AEC92E00E94982187E0AB
:104F2000F50111928A95E9F77DCF882309F43DCFE9
:104F30008091CB028C1110C08091CA02D8120CC093
:104F4000E1100AC09683C8010E94982187E0F5010C
:104F500011928A95E9F729CFC8010E94A4138823EA
:104F600009F428CFEE2009F425CF8091D0028032B9
:104F700010F22091CA023091CB023A8329839C829D
:104F80008B829091CE029D831E828F83CE010196EB
:104F9000B0CF483C5105D0F6882309F40ECFFE2C43
:104FA000EE2009F407CF8091CB028C1120C08091B4
:104FB000CA02D8121CC08091D00280FD0FC0982F69
:104FC000907F61F08683903F31F0982F907F905FC3
:104FD0008F70892B8683C8010E94982187E0F80191
:104FE000AAECB2E001900D928A95E1F7DECEC801FD
:104FF0000E94A41381117FCF8091D00281608093A1
:10500000D002C8010E949821D0CEABE1B0E0EBE025
:10501000F8E20C948B324E8B5F8B688F798F8A8F7E
:105020009B8F192F91111092D3021D8A86E0FE01E9
:105030007696DE011F9601900D928A95E1F70A8D12
:10504000002341F021E04F85588969897A89C80198
:105050000E94C7130B8B1C8B87E0FE013F96DE017D
:10506000189601900D928A95E1F7CE0108960E945C
:105070009E2681110CC087E0FE013896DE01119654
:1050800001900D928A95E1F78C8581110BC017E094
:105090008091BA0490918104891331C06B96E4E049
:1050A0000C94A7322091810430E0C90101968770E9
:1050B00099274091BA044817190699F097E0929FF2
:1050C000D001939FB00D1124AE57BB4FFE01319616
:1050D00001900D929A95E1F7809381040E94AD12A0
:1050E000D6CF0E94AA1B109281041092BA0487E0C6
:1050F000EAECF2E0DF011D928A95E9F7C8CF819FC3
:10510000C00111248E579B4F0E949E26882331F2A6
:105110008091BA0490E00196877099278093BA0431
:10512000B7CFACE0B0E0E7E9F8E20C9482328E0150
:105130000F5F1F4F88E0D8011D928A95E9F78AE931
:10514000C82E81E0D82EF12CE12CAA24A394B12CF6
:1051500024EA822E21E0922EF60181916F018F3F89
:1051600009F442C0F894E82FE295EF70F0E021A135
:105170008F70A50102C0440F551F8A95E2F7CA013E
:10518000922F982B91A392A18095892382A3789442
:1051900000C0EEE9F1E0712C31E021912F3F09F4DC
:1051A000A3C0A22FA295AF70B0E090968C9190E032
:1051B0002F7002C0959587952A95E2F780FD94C0DF
:1051C000832F782A330F8E169F0639F7F601319711
:1051D00080818F3F11F00E94201050EA5A95F1F71C
:1051E000F801EE0DFF1D70828FEFE81AF80A94E0C7
:1051F000E916F10409F0B0CF48E050E0B80188E3C7
:1052000093E00E94CE32009741F028E0F801A8E335
:10521000B3E001900D922A95E1F70091410310E06F
:105220000C5B1C4F892B09F461C081E08093010362
:105230000E94771B909300038093FF02F12CE09073
:105240005B04EE2009F4ACC019861A861B861C8606
:10525000809133038A3008F06DC04BE159E1BE0103
:10526000675F7F4FC8010E940415882309F487C037
:105270004FE45AE1BE01675F7F4FC8010E940415E9
:10528000882309F47CC045EC58E1BE01675F7F4F7D
:10529000C8010E940415882309F471C045E25AE14F
:1052A000BE01675F7F4FC8010E940415882309F47F
:1052B00066C0109233038091400390E044E050E0D8
:1052C000BE01675F7F4F8C5B9C4F0E94CE3221E016
:1052D00020930803892B09F044C0E12C8E2D8F29DF
:1052E0002C96EDE00C949E3280E06BCFF0900103A1
:1052F000FF2009F4A3CF8091FF02909100030E9448
:10530000681B059708F49ACF44E050E068E373E027
:10531000C8010E94CE32892B59F084E0E8E3F3E023
:10532000D80101900D928A95E1F71092010387CF81
:10533000F12CFBCF80910203909103030E94681B24
:10534000843F914008F089CF80910803882329F297
:10535000FE01399684E0DF011D928A95E9F71092EB
:105360000803E0914003F0E0EC5BFC4F89859A85EF
:10537000AB85BC8580839183A283B383AFCF8091BB
:1053800033038F3F31F08F5F809333038A3008F40B
:1053900092CF0E94771B9093030380930203D4CF94
:1053A000C0904003D12CF601EC5BFC4F6F0184E010
:1053B000F801A6E1B3E001900D928A95E1F786E14C
:1053C00093E00E948D098093150384E0EAE1F3E005
:1053D000D60101900D928A95E1F780901E0390907E
:1053E0001F03A0902003B0902103809104039091AB
:1053F0000503A0910603B091070388169906AA0633
:10540000BB06B1F08092040390920503A0920603BC
:10541000B09207030E94140B861A970AA80AB90AC9
:105420008092340390923503A0923603B0923703F2
:1054300088E0E2E2F3E0A3ECB4E001900D928A95FB
:10544000E1F74CCFA6E0B0E0E8E2FAE20C948B3250
:105450000E94771B8C018091FD029091FE028017C3
:10546000910781F019821A820E94771B682F498167
:105470005A81792F80E090E00E9405281093FE0267
:105480000093FD022696E4E00C94A7321F921FB60B
:105490001F9211248F939F93AF93BF9380916504C4
:1054A000811113C08091660490916704A0916804F3
:1054B000B09169044196A11DB11D8093660490933B
:1054C0006704A0936804B0936904BF91AF919F9162
:1054D0008F911F901FBE1F901895CDB7DEB7A09774
:1054E0000FB6F894DEBF0FBECDBF85B7806885BF0D
:1054F00085B7806885BF84B7877F84BF0FB6F8946F
:10550000A89580916000886180936000109260008F
:105510000FBE80E890E00FB6F894809361009093FE
:1055200061000FBE8EE190E1909387028093860226
:105530000E94B7090E94580A8091E200846080931B
:10554000E2007894809177048823A1F01091E9001B
:105550001F709091EC00892F817090FD80E8182BCE
:105560001092E9008091E80083FD0E94DB1B1F7010
:105570001093E90082E084BD93E095BD9AEF97BD5A
:1055800080936E001092340310923503109236030C
:105590001092370388EC90E01091E300111F11275F
:1055A000111F61F4AFE3BCE91197F1F700C00000EF
:1055B000019791F70E94B7091092770410935B044A
:1055C00010935C041093280111110E9407318091FF
:1055D00028018091280194E0811190E0909341038B
:1055E00084E0891B8093400384E90E94201086E6B2
:1055F0000E94201087E90E94201086EC0E94201053
:105600000EE911E0A4EAEA2EA1E0FA2EF801819158
:105610008F018F3F11F00E942010E016F106B1F7C4
:1056200088E0E4E4F3E0DF01282F1D922A95E9F7F2
:10563000E8E3F3E0DF011D928A95E9F790E080E06E
:105640000E94FC32863E9E4F09F466C066EE7EEFF5
:1056500090E080E00E94303360E082E090E00E94C1
:10566000123381E090E0909343038093420361E022
:1056700083E090E00E94123360E074E184E090E007
:105680000E94303360E086E090E00E94123360E0D8
:1056900087E090E00E94123340E050E0BA0188E0D9
:1056A00090E00E94243360E084E290E00E94123394
:1056B00060E087E190E00E94123360E08CE090E0CF
:1056C0000E94123360E08DE090E00E941233198254
:1056D0001A821B821C821D821E821F82188648E04D
:1056E00050E068E170E0CE0101960E94023340E094
:1056F00050E0BA0180E290E00E94243340E050E0A4
:10570000BA018FE090E00E94243340E050E0BA01FB
:1057100083E190E00E94243382E090E00E94F43222
:1057200080934C0384E090E00E94FC3290936404E8
:10573000809363040E949128EFEFF6E721E0E150A7
:10574000F0402040E1F700C000000E9491288091C5
:105750005C04E4E08111E0E0F0E0EC5BFC4F808170
:1057600081FF08C06FEF7FEF90E080E00E94303350
:105770000E94B31483E090E00E94F43290E00E9413
:105780009F130E949B0C81E08093C20448E050E08C
:1057900068E170E083EC94E00E94E4321092C2046D
:1057A0008091C3048C7FF9F485E08093C3048091D9
:1057B000440190914501A09146018093C4049093C7
:1057C000C504A093C6048FE78093C7048FEF80932E
:1057D000C80448E050E068E170E083EC94E00E9487
:1057E00002331092C20483E08093800380E28093AE
:1057F000CB040E94A52F6BE070E08BE09FE00E943D
:1058000037158823E9F18091800365E070E081FD20
:105810009EC086E09FE00E943715882389F16DE0E5
:1058200070E084EF9EE00E943715882349F10E94C2
:10583000140B605A75418F4F9F4F609348047093CB
:10584000490480934A0490934B04EEECF4E080E02A
:1058500092E0DF019C011D9221503040E1F7F0936E
:10586000CF06E093CE068FEF9FEF9093CD04809309
:10587000CC0481E080934D0480934C04109281030A
:1058800080915B04811102C00E940A3189E291E09B
:105890009093600480935F04F0E46F2E222423949D
:1058A000312C8091770400E112E1853009F48DC03C
:1058B0000E9491286DE4E62E63E0F62E74E4C72E74
:1058C00073E0D72ED601F70191918D9123E0E53554
:1058D000F20709F484C09817B9F380905B0410E0D4
:1058E00077247394D6010D916D01F70191907F019A
:1058F000901629F19026B12CAA24A394892D8A21EF
:10590000B1F08820A1F0B98E1A8F0E94771B9C8F6E
:105910008B8F7D8E91E0802F8A2109F490E09E8FFD
:10592000498D5A8D6B8D7C8D8D8D0E940528B39489
:10593000AA0CF6E0BF12E2CFF701319700831F5F98
:10594000183081F60E943710DD24D3944DC081E0D9
:105950009FE061CF80917704843039F10E948715F0
:105960000E9444151092650488E190E00FB6F89407
:10597000A895809360000FBE6092600083B7817F1E
:10598000846083BF83B7816083BF7894889583B731
:105990008E7F83BF0FB6F894A895809160008861D0
:1059A00080936000109260000FBE8091760488237F
:1059B00061F00E949128E4E4F3E0819181114EC2EC
:1059C000ACE4B3E0AE17BF07C1F780917704853030
:1059D00009F4C0CF0E94AA1B0E94C90B69CF98137B
:1059E0007CCF0E94222AD12C0E94871580914D04E1
:1059F000882309F475C080918203909183030E94EB
:105A0000681BC29708F44CC00E94771B90938303D5
:105A1000809382038EEC94E09093CF068093CE0621
:105A20008CE0E7E4F1E0DE011D9601900D928A958D
:105A3000E1F78CE0E3E5F1E0DE01119601900D92D3
:105A40008A95E1F780915603909157030E94681B55
:105A50008E34914028F10E94771BB0E0A0E0809343
:105A6000560390935703A0935803B0935903809122
:105A7000550390E0019666E070E00E9469328093E1
:105A800055039C01220F331FE1E0F0E0EC0FFD1FF6
:105A9000E20FF31F60817181848595850E942A0C35
:105AA0008091CC049091CD04892B09F0FBC08091AA
:105AB0004C048823A9F00E94140B00914804109113
:105AC000490420914A0430914B04601B710B820BF6
:105AD000930B6F3F7F4F8F4F9F4710F40E944415E9
