:100000000C9465060C949D060C949D060C94E52FAB
:100010000C949D060C949D060C949D060C949D06D4
:100020000C949D060C949D060C940C1A0C942B1E9B
:100030000C9403290C949D060C949D060C949D062B
:100040000C949D060C949D060C949D060C949D06A4
:100050000C949D060C94E51A0C949D060C949D0638
:100060000C949D060C949D060C949D060C949D0684
:100070000C949D060C949D060C949D060C949D0674
:100080000C949D060C949D060C949D060C949D0664
:100090000C949D060C949D060C949D060C949D0654
:1000A0000C949D060C949D060C949D062020202007
:1000B0006162636465666768696A6B6C6D6E6F70B8
:1000C0007172737475767778797A31323334353664
:1000D00037383930524542545F2D3D5B5D5C233BE0
:1000E00027602C2E2F20202000000000180009007F
:1000F00000000000277804221528162417212378F1
:100100002878130010000600070024780000000083
:10011000000000002A008152000000001C000A00BC
:1001200000000000000012320C280834113125783C
:10013000000005001A000F000B00267800000000E8
:100140000000000028442C22000000002B00167C38
:1001500000000000000014221D281B2419210000AB
:100160000000390042523800340000000000000056
:100170000000000000000000000000002D002E0024
:100180000000000000000E32373836340D31000018
:10019000000030002F00310033000000000000009C
:1001A0000000000028442C2200000000160015006A
:1001B000000000000000092205280D24172100007E
:1001C00000000A00180008000700000000000000FE
:1001D000000000002A0083520000000010001900F7
:1001E0000000000000000B32063811341C31000002
:1001F00000000F0013001D000E00000000000000B2
:100200000000000028442C22000000002B00167C77
:100210000000000000001A2233282F241B210000B8
:10022000000039004052310034000000000000009E
:100230000000000000000000000000002D002E0063
:100240000000000000000C32383838021431000081
:10025000000037000400360012000000000000001B
:100260000000000028442C220000000027001E008F
:100270000000000000001F2220282124222100006D
:1002800000002300240025002600000000000000DC
:10029000000000002A002C2200000000AA00A90093
:1002A0000000000000004F0051005200500000000C
:1002B00000003000D900DA004C000000000000000F
:1002C000000000000000000000DA0281FFD9F1DB2D
:1002D00020A4A62EAF00A0C0D30000A1C8D3000068
:1002E000AED580A81F408D142000556E6465660051
:1002F00041646A757374005261697365004C6F776D
:1003000065720044656661756C74004C6179657254
:100310003A20003A002C206B00780000000000001A
:10032000FEFFFFFFFFFFFFFFFFFFFFFFFFFFFFFFDE
:10033000FFFFFFFFFFFFFFFFFFFFFFFFFFFFFFFFCD
:10034000FFFFFFFFFFFFFF0F0F0F0F0FFFFFFFFF6D
:10035000FFFFFFFFFFFFFFFFFFFFFFFFFE000000AB
:10036000000000000000000000000000000000008D
:10037000000000000000000000000000000000007D
:10038000000000000000000000000000000000006D
:10039000000000000000000000000000000000005D
:1003A000FFFFFFFF8383838383FFFF83838383FFB9
:1003B000FF8383838383FFFF83838383FFFF8383A1
:1003C000838383FFFFFFFF8282828282FFFF83831A
:1003D0008383FFFF8383838383FFFFFFFF0000008E
:1003E00000000000000000F8FCFCFC9C9CFCFCF8F9
:1003F000F870000000000030787C3C9CFCFCF8F0B9
:100400000000000000C0F0F8F83C3C9CBCFCB8B810
:10041000A00000000000000000000000000000003C
:10042000FFFFFFFF4141414141FFFFFFFFFFFFFF92
:10043000FF4141414141FFFFFFFFFFFFFFFF4141FE
:10044000414141FFFFFFFF4141414141FFFF7F7FAC
:100450007F7FFFFF4141414141FFFFFFFF0000005F
:10046000000000000000003F3F3F3F03070F3F3FF9
:100470003E382000000000383C3E3F3F3F3B3938CB
:100480000000000000070F1F3F3C383B3B3F1F1F91
:100490000F0000000000000000000000000000004D
:1004A0007FFFFFFFF0F0F0F0F0FFFFFFFFFFFFFF27
:1004B000FFF0F0F0F0F0FFFFFFFFFFFFFFFFF0F0B5
:1004C000F0F0F0FFFFFFFFF0F0F0F0F0FFFFF0F0D2
:1004D000F0F0FFFFF0F0F0F0F0FFFFFF7F00000012
:1004E000000000000000000000000000000000000C
:1004F00000000000000000000000000000000000FC
:1005000000000000000000000000000000000000EB
:1005100000000000000000000000000001010101D7
:1005200001010101010202020202020202020303AE
:10053000030303030303040404040404040505057E
:100540000505060606060607070707070808080840
:10055000090909090A0A0A0B0B0B0C0C0C0D0D0DED
:100560000E0E0E0F0F0F1010111111121213131483
:1005700014151516161717181819191A1A1B1B1CFB
:100580001D1D1E1E1F202021222223242425262655
:10059000272829292A2B2C2D2D2E2F30313232338A
:1005A0003435363738393A3B3C3D3E3F4041424393
:1005B0004445464748494A4C4D4E4F505153545577
:1005C0005658595A5B5D5E5F616264656668696B27
:1005D0006C6D6F7072737577787A7B7D7E808283A5
:1005E0008587888A8C8E8F91939596989A9C9EA0E9
:1005F000A2A3A5A7A9ABADAFB1B3B5B7BABCBEC0F6
:10060000C2C4C6C9CBCDCFD1D4D6D8DBDDDFE2E4BE
:10061000E7E9EBEEF0F3F5F8FAFDFF00AF00AE0509
:10062000010902A10185020901A100050919012999
:100630000815002501950875018102050109300999
:10064000311581257F9502750881060938158125A8
:100650007F950175088106050C0A38021581257FF2
:10066000950175088106C0C005010980A1018503B7
:1006700019012AB700150126B700950175108100F0
:10068000C0050C0901A101850419012AA002150168
:1006900026A002950175108100C005010906A1017F
:1006A0008506050719E029E715002501950875015C
:1006B00081020507190029EF1500250195F0750144
:1006C0008102050819012905950575019102950119
:1006D00075039101C005010906A101050719E0296B
:1006E000E7150025019508750181029501750881BE
:1006F000010507190029FF150026FF00950675085A
:1007000081000508190129051500250195057501C8
:100710009102950175039101C009023B000201009D
:10072000A0FA0904000001030101000921110100E0
:1007300001224400070581030800010904010001AA
:100740000300000009211101000122B60007058203
:1007500003200001120100020000000853460100BE
:100760000100010200010C0343006F0072006E00E3
:1007700065000000100366006F006F0073007400D6
:1007800061006E0000000403090400000000000086
:100790003E5B4F5B3E003E6B4F6B3E001C3E7C3E23
:1007A0001C00183C7E3C18001C577D571C001C5E2A
:1007B0007F5E1C0000183C180000FFE7C3E7FF0045
:1007C000001824180000FFE7DBE7FF0030483A0676
:1007D0000E00262979292600407F05050700407F65
:1007E00005253F005A3CE73C5A007F3E1C1C080090
:1007F000081C1C3E7F0014227F2214005F5F005FF4
:100800005F0006097F017F00006689956A006060CD
:100810006060600094A2FFA2940008047E040800B7
:1008200010207E20100008082A1C0800081C2A0836
:1008300008001E10101010000C1E0C1E0C0030388A
:100840003E383000060E3E0E06000000000000009C
:1008500000005F000000000700070000147F147F05
:100860001400242A7F2A12002313086462003649E8
:1008700056205000000807030000001C2241000021
:100880000041221C00002A1C7F1C2A0008083E0888
:100890000800008070300000080808080800000008
:1008A000606000002010080402003E5149453E00EF
:1008B00000427F4000007249494946002141494DAC
:1008C00033001814127F10002745454539003C4A73
:1008D000494931004121110907003649494936008B
:1008E000464949291E000000140000000040340061
:1008F00000000008142241001414141414000041D4
:10090000221408000201590906003E415D594E00BB
:100910007C1211127C007F49494936003E41414119
:1009200022007F4141413E007F49494941007F0902
:10093000090901003E41415173007F0808087F000A
:1009400000417F4100002040413F01007F08142208
:1009500041007F40404040007F021C027F007F0436
:1009600008107F003E4141413E007F090909060011
:100970003E4151215E007F09192946002649494917
:10098000320003017F0103003F4040403F001F2031
:1009900040201F003F4038403F00631408146300AC
:1009A0000304780403006159494D4300007F41412D
:1009B0004100020408102000004141417F00040270
:1009C00001020400404040404000000307080000CE
:1009D0002054547840007F2844443800384444442C
:1009E0002800384444287F00385454541800000824
:1009F0007E0902001824241C78007F080404780073
:100A000000447D4000002040403D00007F1028440D
:100A1000000000417F4000007C04780478007C08DE
:100A2000040478003844444438007C182424180016
:100A3000182424187C007C080404080048545454EA
:100A4000240004043F4424003C4040207C001C203F
:100A500040201C003C4030403C004428102844000A
:100A60004C9090907C004464544C44000008364103
:100A7000000000007700000000413608000002017D
:100A8000020402003C2623263C0000000000000077
:100A900000000000000000000000C0E0F0F8F818BE
:100AA00000C0F0FCFEFFFFFFFFFFFFFF7E00000025
:100AB00000000000000080C0E0E0E0E0E0E0E0E0F6
:100AC000C0800000000080C0E0E0E0E0E0E0E0E0A6
:100AD000C080000000E0E0C0C0E0E0E0E00000E036
:100AE000E0C0C0E0E0E0E0E0C0800000000080C0C6
:100AF000E0E0E0E0E0E0E0E0C080000000000000B6
:100B00000000000000000000E0F0F0F0E0ECEEF784
:100B1000F37020007C7C7C7E007E7E7E7F7F7F0069
:100B20000080C0E07E5B4F5BFEC00000C000DCD7F1
:100B3000DEDEDED7DC00C0000000000000000000A8
:100B400000000000000000000000000000000000A5
:100B5000000000F8FCFEFFE000FFFFFFFFFFFF804A
:100B6000FFFFFFFFFFFFFFFFFF1F07010000000067
:100B70000000000000FFFFFF810000000000008176
:100B8000C3C3C30000FFFFFF81000000000000811D
:100B9000FFFFFF0000FFFFFF01000000000000FF5B
:100BA000FFFF010000000001FFFFFF0000FFFFFF4B
:100BB0009D1C1C1C1C1C1C9DDFDFDF0000000000B6
:100BC00000000000000000000F1F3F7F7F7F7F7F3D
:100BD0003F1E0C001F1F1F3F003F3F3F7F7F7F00D6
:100BE000307B7F7830202030787F3B0003000F7F00
:100BF0000F0F0F7F0F000300000000000000000037
:100C000000000000000000000000000000000000E4
:100C1000000000030F1F3F3F3F3F1F1F3F3F7F7FED
:100C20007F3F3F1F3F7F7F7F7F7C7878381C0F009E
:100C30000000000000000103070707070707070778
:100C40000301000000000103070707070707070764
:100C50000301000000070707000000000000000774
:100C6000070700000000000007070700000001035D
:100C70000707070707070707030100000000000038
:100C80000000000000000000000000000000000064
:100C90000000000000000000000000000000000054
:100CA0000000000000000000000000000000000044
:100CB0000000000000000000000000000000000034
:100CC0000000000000000000000011241FBECFEF54
:100CD000DAE0DEBFCDBF04B603FE18C08091C706C0
:100CE0009091C806A091C906B091CA068730904B72
:100CF000A740B04B59F41092C7061092C806109244
:100D0000C9061092CA06E0E0F8E3099512E0A0E0F7
:100D1000B1E0E6EDF4E602C005900D92AE36B10703
:100D2000D9F726E0AEE6B2E001C01D92A73CB207BB
:100D3000E1F70E942A290C9405320C94000090914E
:100D4000B404937061F081110BC094609093B4046B
:100D5000109243018091B30481608093B30408959D
:100D6000803110F09C63F2CF880F880F982BEECF64
:100D7000482F2091AB049091720457E0291302C0D0
:100D800080E0089530E0529FF001539FF00D112450
:100D9000ED58FB4F8181681306C08081481303C062
:100DA00085818111EECF2F5F3F4F2770E7CFFC0188
:100DB000AC014C5F5F4F8FEF91E32191822728E0D8
:100DC00030E087FF09C0880F892721503109C9F712
:100DD000E417F50791F70895880FF7CF9091B404C1
:100DE000937071F08093B5046093B604493708F0AE
:100DF00048E74093B7048091B30481608093B304C3
:100E00000895E8EDF0E080818E7F80831092E2000B
:100E10001092DA001092E100A0EEB0E08C918160B7
:100E20008C9380818F77808319BCA7EDB0E08C9183
:100E30008E7F8C9380818F7E8083109243040895EF
:100E40002091E4003091E50095E6A9012091EC00A5
:100E5000822F817020FF06C08091E80080FF06C0CD
:100E600080E008952091E80022FD1AC08091680476
:100E7000882389F0853089F08091EB0085FD0FC0D3
:100E80002091E4003091E50042175307F9F29150A8
:100E9000E1F684E0089582E0089583E0089581E01A
:100EA000089580916A0487FF13C08091E80082FF53
:100EB00006C08091E8008B778093E80004C08091A1
:100EC00068048111F2CF0895809168048823D9F3D2
:100ED0008091E80080FFF8CF8091E8008E77ECCF1A
:100EE000982F9093E900242F762F50E0891731F046
:100EF0007091EC002091ED005091F00021FD07C0B1
:100F00009F5F973071F78093E90081E008953091F9
:100F1000EB003E7F3093EB003091ED003D7F30934E
:100F2000ED003091EB0031603093EB007093EC00FA
:100F30002093ED005093F0002091EE0027FDE0CFCC
:100F400080E00895B0E0A0E0E8EAF7E00C941F31FB
:100F5000C8EDD0E088818F7E8883E7EDF0E0808166
:100F60008160808384E082BF81E080934304888134
:100F70008E7F888302EE10E0F80110821092DA0072
:100F800081EEC82ED12CF601108288818F7788835C
:100F900088818068888388818F7D888319BC1092BE
:100FA000680410926904109267041092660490EE2F
:100FB000E92EF12CF70180818B7F8083888181600D
:100FC000888342E060E080E00E947007F601808143
:100FD0008E7F8083F801808181608083808188603A
:100FE0008083F70180818E7F808388818061888300
:100FF000CDB7DEB7E8E00C943B31FC018091700482
:101000009091710486179707A0F06115710529F476
:101010009091E8009E779093E80090E0611571054B
:1010200051F4911108C08091E80082FF34C080E043
:101030000895BC01F2CF809168048823C1F1853006
:10104000C1F18091E80083FD30C08091E80082FD0D
:10105000EACF8091E80080FFE1CF8091F3002091FA
:10106000F200382F6115710519F02830310558F05C
:1010700091E02830310509F090E02091E8002E77CA
:101080002093E800CBCF81918093F10061507109EA
:101090002F5F3F4FE7CF80916804882341F0853070
:1010A00041F08091E80083FFBECF81E0089582E0A7
:1010B000089583E008958091450408952FB7F8942A
:1010C00060913D0470913E0480913F0490914004F2
:1010D0002FBF089520913F012223C9F020914104A0
:1010E00027FF15C0E62FE695E695E695EE31D8F494
:1010F000E80FF92FF11D677021E030E001C0220FE9
:101100006A95EAF720958281282322830895FC01BD
:10111000329608962191621303C0DF0111971C9249
:10112000E817F907B9F7089520913F012223C1F08C
:101130002091410427FF14C0E62FE695E695E69539
:10114000EE31F8F4E80FF92FF11D677021E030E07F
:1011500001C0220F6A95EAF78281822B828308956B
:10116000FC0132962FEF30E04191641751F02F3F90
:1011700019F4411101C0232F3F5F3630A9F72F3FEB
:1011800009F40895820F911D27FD9A95FC01628351
:101190000895A3E0B0E0EFECF8E00C942531209145
:1011A0003A0430913B0428173907A1F090933B048F
:1011B00080933A04E0913804F0913904309751F06B
:1011C00024E029839B838A830680F781E02DCE016A
:1011D000019609952396E2E00C944131A3E0B0E03A
:1011E000E4EFF8E00C942531209136043091370477
:1011F00028173907A1F09093370480933604E091C3
:101200003804F0913904309751F023E029839B830F
:101210008A830680F781E02DCE01019609952396F9
:10122000E2E00C944131FA01811101C0FB01099502
:10123000089510928D030895E4EBF4E0248130E1E9
:10124000231B08F420E024838091B3048160809301
:10125000B3040895E4EBF4E0248130E1230F08F4B3
:101260002FEF24838091B30481608093B3040895A9
:10127000E4EBF4E0438120E1421B08F440E081818B
:10128000628190E00E94EE060895E4EBF4E0438171
:1012900020E1420F08F44FEF8181628190E00E94CB
:1012A000EE060895E4EBF4E0628120E1621B08F4AD
:1012B00060E08181438190E00E94EE060895E4EBB6
:1012C000F4E0628120E1620F08F46FEF81814381D5
:1012D00090E00E94EE060895E4EBF4E08181438102
:1012E00062818850990B0E94EE060895E4EBF4E0C9
:1012F000818190E04381628108960E94EE06089504
:101300008091B40486958695815009F48FE00E94FF
:101310009F0608958091B404869586958F5F8031ED
:1013200008F081E00E949F060895322F50E0FA01F4
:10133000EE0FFF1FE456FE4F91A9905297FD919535
:10134000440F551FFA01E453FE4F2081231B330B3A
:10135000290F311D97FD3A95620F0895622F089568
:10136000E42FF0E0EE0FFF1FE453FE4F408134EE18
:10137000439F412D1124E82FF0E050E0445E5F4F81
:10138000DA01A21BB1099D01B7FF03C03195219578
:10139000310993E0220F331F9A95E1F7AF01421B09
:1013A000530B9A0157FD20E0582F259F212D112422
:1013B000822F0895E42FF0E0EE0FFF1FE453FE4F5D
:1013C000408134EE439F412D1124E72FF0E050E09F
:1013D000445E5F4FDA01A21BB1099D01B7FF03C054
:1013E00031952195310993E0220F331F9A95E1F74A
:1013F000AF01421B530B9A0157FD20E0279F212D7F
:101400001124722F08950E94DA110895FF920F930C
:101410001F93CF93DF93182F062FF42ED0E0C0E058
:101420002F2D402F612FCE010E94030A2196C63333
:10143000D105B1F7CDB7DEB7E5E00C943E31FC0144
:101440009B01009729F480E077FF2BC080E8089586
:10145000AC0197FF04C044275527481B590BB9011D
:10146000640F751F37FD10C0241B350BC901A5E0A3
:10147000880F991FAA95E1F70E94583180E2861BD8
:10148000F7FF0FC081950895CB0165E0880F991F84
:101490006A95E1F7BA01621B730B0E94583180E62E
:1014A000EECF0895EF920F93CF93DF93D72FC82FEE
:1014B000C9010E19BA010E941F0A602F681B7D2FF7
:1014C0008C2FDF91CF910F91EF900895EF920F93B2
:1014D0001F93CF93DF93D62FC72F182FC9010E1953
:1014E000010FBA010E941F0A081B202F219F212DE6
:1014F0001124822F6D2F7C2FDF91CF911F910F919F
:10150000EF900895EF920F931F93CF93DF93D62F11
:10151000172FC82FC9010E19070FBA010E941F0A01
:10152000702F781B719F712D11246D2F8C2FDF91DF
:10153000CF911F910F91EF900895E82F86FDE095D0
:101540002E2F2F7086FD2F5FE695E695E695E670C7
:10155000F0E0EC56FE4F9181929F902D212D1124A9
:1015600092959F702295207F922B2081920F87FD6C
:10157000919580E8890F089540913B0150913C017D
:1015800025E038E0429FC001439F900D529F900D8F
:101590001124875E994C90933C0180933B01890F05
:1015A000089530E020E0869F212D969F200D311D6B
:1015B0001124C9010895AF92BF92CF92DF92FF929A
:1015C0000F931F93CF93DF93362F472FE82FF0E031
:1015D000E55EFA4F71110FC0E4918E2F2E2F6E2F02
:1015E000722FDF91CF911F910F91FF90DF90CF90DD
:1015F000BF90AF900895C72FD0E02491F22E022F14
:1016000010E056E0659FC0011124EFEFF0E0BF014C
:101610000E940131832F90E0880F991F35E5369F96
:10162000D001379FB00D11248A1B9B0B982F990F67
:10163000980F6F01CC1ADD0AC09ED001C19EB00D7B
:10164000D09EB00D11248B2F499FA0011124452F4E
:1016500055276F01C41AD50AC09EA001C19E500D26
:10166000D09E500D11245F01A91AB108AC9E6001F3
:10167000AD9ED00CBC9ED00C1124CD2CDD24EC19D9
:10168000FD09E09FE001E19FD00DF09FD00D1124F6
:10169000ED2F62307105A1F050F46115710509F468
:1016A0009ECF6130710581F0EB2F852F98CF64308C
:1016B000710569F080F06630710509F490CFF4CFC0
:1016C000E22F2B2F8D2F8BCFE22F252F88CFEB2FC3
:1016D000822F2D2F84CF2B2F8F2DE52F80CFB0E0A1
:1016E000A0E0E5E7FBE00C9420318C01FC01E85C14
:1016F000FD4F8081682349F1D090B604D091B704A2
:10170000C091B504EC2EF12C0E94BC0A282FC70111
:101710008C549F4F68E671E00E9458318E199F09E2
:1017200097FD0396959587959595879523706C2FD2
:10173000289F600D11247D2D8D2F0E94DB0A462FDE
:10174000282F672FC8010E94030ACDB7DEB7E7E054
:101750000C943C318091620380FD16C081FD16C05F
:1017600082FD16C0809161038823A1F0883280F445
:1017700028E0829FC001112468E270E00E94583185
:10178000862F672B39F0089582E0089584E008954C
:1017900088E0089581E008958091620380FD14C07F
:1017A00081FD14C082FD16C080916003882381F002
:1017B0008E3180F420E5829FC00111246EE170E03B
:1017C0000E945831862F089584E1089588E2089593
:1017D00088E0089580E50895282F35EB2303C001A4
:1017E000112497FF04C080589109892F08958058CB
:1017F0009F4FFBCF80E00895F894E82FE295EF70BB
:10180000F0E031A1282F2F7081E090E001C0880F17
:101810002A95EAF7982F9095932391A392A1892B6B
:1018200082A3789408959091410492FF10C041E002
:10183000282F2471243009F040E031E0282F28714E
:10184000283009F030E0431711F02CE0822793FF95
:1018500010C041E0282F2471243109F040E031E02C
:10186000282F2871283109F030E0431711F02CE0BF
:1018700082273091420430FF10C051E0282F21719F
:10188000213009F050E041E0282F2871283009F07C
:1018900040E0541711F029E0822731FF10C041E0E9
:1018A000282F2171213109F040E031E0282F2871E3
:1018B000283109F030E0431711F029E0822794FD28
:1018C000877E089582389105B9F1B0F4813391058E
:1018D00009F47DC048F48932910509F46DC08A325B
:1018E000910509F47BC008958533910509F45FC023
:1018F0008933910509F10895833E9105D9F138F4B2
:10190000803E910529F1823E910579F10895863E48
:101910009105D9F1873E910509F43EC0843E9105B9
:1019200041F52091420421FF24C08091410484FDAF
:1019300019C087EE90E0089520914104237009F0CA
:101940005AC02091420423FF14C089E290E0089518
:101950002091410420FD38C03091420430FF09C07D
:1019600024FF43C090E080E008952091410422FDCF
:10197000F7CF08952091410422FD3AC030914204EE
:1019800030FD39C024FFF5CFEDCF2091410423FF76
:10199000F0CF24FDE7CFCDCF2091410423FD2EC011
:1019A0003091420431FFEECF84EE90E00895209113
:1019B000410425FFDECFC9CF2091410425FD21C080
:1019C0002091420423FFD5CF89E390E0D2CF20912C
:1019D000410426FFCECF8AE290E008952091410491
:1019E00026FFC7CF81E390E0089583EE90E008954D
:1019F00082EE90E0089580EE90E0089586EE90E00B
:101A0000089585E390E00895972F7830B8F4663014
:101A1000A8F48530B0F470E026E0929F600D711D4F
:101A20001124FB0190E3899FE00DF11D1124EE0FBD
:101A3000FF1FE851FF4F85919491089580E090E059
:101A4000089581E0FCCF1F93CF93DF930E94620C37
:101A5000EC01C11580E5D807F0F5C11580E4D80781
:101A600008F09CC0C03ED10520F5CD3CD10508F062
:101A700082C0C83AD10578F4C53AD10508F073C0E0
:101A8000C130D10519F1209709F1C430D105F0F426
:101A9000D0E0C0E01BC0C33CD105D0F7C85AD0E0AD
:101AA000CC0FDD1FC65BDE4F0990D881C02DD464FA
:101AB0000DC0C11580E2D80708F0D1C0C11581E082
:101AC000D80708F05AC0C83ED10510F7CE01DF9103
:101AD000CF911F910895C03682E5D80718F5C0341C
:101AE00082E5D80708F06BC0C03282E5D80708F05D
:101AF0005FC0C11582E5D80708F497C02C2F269542
:101B0000269580E2289F900111248C2F8370C1E0DC
:101B1000D0E002C0CC0FDD1F8A95E2F7C22BD32B99
:101B2000DD68D4CFC03A82E5D80760F4C03882E5DA
:101B3000D80708F459C0CF71D0E0DC2FCC27C46F90
:101B4000D06AC4CFC03C82E5D80708F462C0C03E6A
:101B500082E5D80708F09CCFDC2FCC27CC27DF719B
:101B6000C06FD06AB3CFC55AD0E0C95BDE4FC88121
:101B7000D0E0D064ABCFD065A9CF8D2F0E94130CDD
:101B8000182FCE0199270E94620CC12FD0E0DC2FC4
:101B9000CC27CC27DF71C82BD92B98CFCE01992722
:101BA0000E94620CCC27DF70C82BD92BD06A8ECF55
:101BB000CF71D0E0DC2FCC27C16FD06A87CF2C2F1C
:101BC00026952695277080E2289F900111248C2F5E
:101BD0008370C1E0D0E002C0CC0FDD1F8A95E2F730
:101BE000C22BD32BDC6872CF2C2F2695269527701D
:101BF00080E2289F900111248C2F8370C1E0D0E0F7
:101C000002C0CC0FDD1F8A95E2F7C22BD32BDA6816
:101C10005DCF8C2F8F710E94130CC82FD0E0DC2F6A
:101C2000CC27CC27DF71D06251CF8C2F8F710E94CF
:101C3000130C55E0D695C7955A95E1F7CF70D0E0D3
:101C4000DC2FCC27282F30E084FF05C044E0220F92
:101C5000331F4A95E1F7C22BD32BD06937CF8D2F95
:101C60008F710E94130C182FCE0199270E94620CCD
:101C7000C12FD0E0DC2FCC27CC27DF71C82BD92B8C
:101C8000D2CF80959091D40298239093D402089556
:101C90008091AB0490917204981301C008958F5FF6
:101CA0008770FACFB0E0A0E0E8E5FEE00C941E31CA
:101CB0007C0100912E0310912F038091D502909109
:101CC000D602082B192BCFE0D0E0CC24C394D12C22
:101CD000BC2EC6010C2E02C0880F991F0A94E2F791
:101CE00080239123892B49F4219790F7B12C8B2DD8
:101CF000CDB7DEB7E9E00C943A31B7018C2F0E94E2
:101D0000040D0E94230D019779F3F1CFCF93DF9358
:101D1000EC010E94520EBE010E94040D0E94230D90
:101D2000DF91CF910895983078F5863068F5E82FE7
:101D3000F0E086E0989FE00DF11D11249E2F977032
:101D400083E0F695E7958A95E1F7EE0FFF1FEE0F1A
:101D5000FF1FEE56FD4F50E040E080E0219130E063
:101D6000092E02C0369527950A94E2F72170332791
:101D7000042E01C0220F0A94EAF7822B4F5F5F4FB7
:101D80004430510559F7089580E00895983098F54A
:101D9000863088F5E82FF0E086E0989FE00DF11D91
:101DA00011248E2F877041E001C0440F8A95EAF715
:101DB00083E0F695E7958A95E1F7EE0FFF1FEE0FAA
:101DC000FF1FEE56FD4F30E020E070E05191DF0143
:101DD0001197CB01022E02C0969587950A94E2F7DF
:101DE000817081958527842385278C932F5F3F4FB2
:101DF0002430310559F7089590932F0380932E03D3
:101E0000089521E030E002C0220F331F8A95E2F7E7
:101E10002095309580912E0390912F038223932358
:101E20000E94FC0E08959091B102809589238093C1
:101E3000B102282F277069F4891759F09091420454
:101E400092FF07C08695869586950E94010F109295
:101E5000B102089521E030E002C0220F331F8A95BD
:101E6000E2F780912E0390912F03822B932B0E94F7
:101E7000FC0E08959093D6028093D5020895FC013C
:101E800024812223C1F0808191810E94860E929547
:101E90009F70963091F058F4925F9F70923058F492
:101EA000803F19F030F4883E30F481E008959A5F65
:101EB000F4CF843FD1F380E00895883EB0F3813FB2
:101EC000D1F7F3CFA6E0B0E0E8E6FFE00C942431D0
:101ED00049835A8349815A819923A1F0222391F0A1
:101EE000CA010E94520E182F682F89819A810E9480
:101EF000C60E69817A81812F0E94040D2696E3E047
:101F00000C944031CA010E94930E182FF2CFCF9348
:101F1000DF93682F81E06A3019F06D3031F480E092
:101F20000E941510DF91CF9108958091C506909180
:101F3000C60626E0FC01AFEBB6E001900D922A95B3
:101F4000E1F7603E08F458C026E0FC0111922A95A2
:101F5000E9F7C091C506D091C60646E050E0BE0143
:101F60008FEB96E00E949D319E012F5B3440892BC0
:101F700041F1C90145E0969587954A95E1F741E021
:101F800050E0BA0102C0660F771F8A95E2F7CB01D5
:101F90006091BD047091BE04862B972BB9016B5FD5
:101FA0007F4FE5E076956795EA95E1F702C0440F2B
:101FB000551F6A95E2F7842B952B9093BE0480936E
:101FC000BD042A5F3F4F4091BC04642F70E0C901FB
:101FD0000E940131481B463010F4240F311D211599
:101FE00072E0370710F030E020E021543B4F30938F
:101FF000C6062093C50696CFF6E06F9FB001112468
:102000006657784F46E050E00E949431A2CFCF93BC
:10201000DF93EC01FE018491811103C0DF91CF9128
:1020200008950E94870F2196F5CFCF93382FE09126
:10203000C506F091C606EF5BF4402091BC04622F08
:1020400070E0CF010E940131281B822F332361F001
:1020500066E00E944C31C82FC15010F4CF91089512
:1020600080E20E94870FF8CF9F01280F311D2115B4
:10207000324018F080E0F0E0E0E08E0F9F2F911DDD
:1020800081549B4F9093C6068093C506E7CF0E946C
:10209000071081E00E94151008958091D40290915C
:1020A000D302892B809370029091D2029923A1F0E0
:1020B000892B8093700280913F018823E1F1809108
:1020C000410487FF38C08EE1E2E7F2E090E0815002
:1020D000A0F591111092D20240E250E062EB72E062
:1020E00080E792E00E949D31892B21F180E2E0E7B8
:1020F000F2E0A2EBB2E001900D928A95E1F7E09157
:102100003804F09139043097A9F080913F01882379
:1021100059F08091410487FF07C08091700280933D
:10212000710286E0809370020280F381E02D80E7E7
:1021300092E00995089586E0C7CF2191222339F2D4
:102140009F5FC5CF882321F00E94410E0E944D1051
:102150000895882339F09091D402982B9093D4025B
:102160000E944D1008950F931F93CF93DF938B011F
:10217000EA0190916804943061F58093E9008FEF53
:102180009091E800815095FD06C095ED9A95F1F784
:1021900000008111F5CF8091E80085FF1AC00E94F0
:1021A0002007811111C08091E80085FD06C0809153
:1021B000E8008E778093E800F2CFF80181918F01DB
:1021C0008093F100219779F78091E8008E778093D2
:1021D000E800DF91CF911F910F91089543E050E007
:1021E000BC0182E00E94B310089546E050E0BC01BB
:1021F00082E00E94B3100895CF93DF93EC018091A9
:102200003F01811111C048E050E0BE0181E00E9411
:10221000B31080E2FE01A6E4B4E001900D928A952D
:10222000E1F7DF91CF9108958091410487FF05C0C8
:1022300040E282E050E0BE01EACF48E081E0FACF20
:1022400081E08093E00080E28093D8001092C90082
:102250008FE19EE40197F1F700C0000087E090EB6A
:10226000DC018093C7069093C806A093C906B0937B
:10227000CA0688E19CE00FB6F894A89580936000A8
:102280000FBE90936000FFCF80918D03882341F1B2
:10229000539A3BB1377F2BB128604FB7F8948EE843
:1022A00093E0FC015191CF0168E02BB9000000C020
:1022B00057FF3BB9550F000000C000C000C03BB93C
:1022C00000C06A9591F7F4E080339F0751F74FBF44
:1022D0008FE594E00197F1F700C0000010928D03A4
:1022E0000895B0E0A0E0E7E7F1E10C941D317C0136
:1022F0005B016A0180910E0301E010E08A3010F466
:102300000AE010E0C1E0D0E0B501C701F60109958F
:10231000811104C021960C171D072CF4CDB7DEB730
:10232000EAE00C943931CC9F9001CD9F300D300DF7
:10233000112490E080E045E34A95F1F70000019612
:1023400082179307C1F7E0CF8091E302811119C092
:1023500088EC90E02091E30027FD10C0EFE3FCE95A
:102360003197F1F700C000000197A1F782E0809358
:10237000E3020E9401071092680403C081E0809389
:10238000E30281E09091E302913011F080E0089542
:1023900008950E94A411882359F0E0913804F09127
:1023A0003904309729F00190F081E02D09950895C6
:1023B00080E00895FF920F931F93CF93DF93EC017A
:1023C000F62E042F122F0E94A411811123C0CB31AD
:1023D000D1051CF16B97FE01EE0FFF1FDF01AC0F63
:1023E000BD1FA257BC4F11968C9111978F1107C03A
:1023F0008C91801304C012968C91811771F081E04A
:1024000080938D03EC0FFD1FE257FC4FF182008398
:10241000128303C0CB31D105F4F2CDB7DEB7E5E0CE
:102420000C943E31CF93C82F0E94A411882329F029
:1024300081E0CB3128F080E003C081E0C633D8F7DB
:10244000CF910895B0E0A0E0E8E2F2E10C941D31F4
:102450006C01C09140018BE0C89FC02D11241BE08E
:102460001C0F173308F016E30E94A411882319F0FB
:102470001C3108F01BE10E94A411811103C0CB3173
:1024800008F4CBE16091B80466958091AC0490911A
:10249000AD040E94D10AF82ED0E0CE01880F991F1A
:1024A0009C0124563E4F5901C11740F0812F0E94D4
:1024B0001212CDB7DEB7EAE00C943931FE01E85CC8
:1024C000FD4F808190914101892309F451C0D501CC
:1024D000D0964C91D0974057550BD1962C912052C5
:1024E000330B449FB001459F700D700D1124229F46
:1024F000C001239F900D900D1124860F971F082F68
:102500008230910520F1EFEF813EBEE19B0738F468
:10251000FC01B5E0F695E795BA95E1F7E85FF1E0E3
:10252000AF2FAE0FBB27BB1FBD0175956795062F5B
:10253000669FD001679FB00DB00D11248A179B07CD
:10254000E0F4EFEFE60FEF1758F70FEF0F0F609182
:10255000B5047091B6048091B704EF2CF60109958B
:102560000E94DB0A462F282F672FCE010E94030A04
:102570002196F2E0AF0EB11C97CF6F3F41F3F1E02F
:10258000F60FE1CFEF92FF920F931F93CF93DF935C
:102590007C01C09140018BE0C89FC02D11241BE03D
:1025A0001C0F173308F016E30E94A411882319F0BA
:1025B0001C3108F01BE10E94A411811103C0CB3132
:1025C00008F4CBE16091B8046695669521E0620F4E
:1025D00008F46FEF8091AC049091AD040E94D10A91
:1025E000082FD0E0C11740F0812F0E941212CDB702
:1025F000DEB7E6E00C943D31FE01E85CFD4F8081E2
:1026000090914101892391F06091B5047091B604D5
:102610008091B704202F4C2FF70109950E94DB0A07
:10262000462F282F672FCE010E94030A2196DACF6A
:102630000F931F930E94A411882329F00E945E0823
:102640001F910F9108950E945E0800910F03109151
:1026500010032091110330911203600F711F821F2C
:10266000931FEECFB0E0A0E0E8E3F3E10C941F315C
:102670006C017B0164E670E088E70E945F2E8C01AC
:10268000E601EC0CFD1C17FD0BC0FE01849164E615
:1026900070E00E94CB2E8C012196CE15DF0599F7B4
:1026A0000E94412F81E00115110509F080E0CDB7AE
:1026B000DEB7E8E00C943B3180913404909135040E
:1026C000911103C091E089270895882369F062E0A1
:1026D00070E08DE196E00E943213811103C0809179
:1026E000340408951092340480913404EBCFCF93D6
:1026F000C0913404809135048823D1F00E945E0893
:10270000605A75418F4F9F4F60933004709331042E
:102710008093320490933304C11108C062E070E0EA
:102720008BE196E00E943213811105C0C091340400
:102730008C2FCF91089581E080933404F7CFA3E0EC
:10274000B0E0E5EAF3E10C9416310E9418136093AF
:102750006D0370936E0380936F03909370033091B9
:10276000B404232F2370722E19F0732E769476946E
:10277000209143012130D1F0222351F0223009F47D
:10278000C6C3233009F4CDC32396E1E10C94323162
:10279000109240016093AC047093AD048093AE043A
:1027A0009093AF0481E080934301EECF90913E017E
:1027B00081E079120BC0832F837020913D0130E0BE
:1027C00091E08217130609F490E0892F81708093BD
:1027D00042018091B90490914101981739F080939A
:1027E000410140E060E080E00E94060A3FE03715CA
:1027F00080F0E72DF0E0E95FFD4C0C948E31809184
:102800004201882309F4C5C140E060E080E00E94F5
:10281000060A80E0BEC18091400189838BE09981E6
:10282000989F802D11248983182F155F173308F086
:1028300016E30E94A411882319F01C3108F01BE153
:102840000E94A411811105C0E981EB3110F4FBE174
:10285000F9836091B5047091B6048091B7040E9429
:10286000DB0A062FF72EE82E3981232F30E03B8339
:102870002A839A81911720F0812F0E94121289C118
:10288000EA81FB81E85CFD4F8081909141018923C1
:1028900039F02E2D402F6F2D8A819B810E94030AD3
:1028A0008A819B8101969B838A83E3CFE0914001DB
:1028B0008BE0E89F802D11248983182F155F173333
:1028C00008F016E30E94A411882319F01C3108F0C7
:1028D0001BE10E94A411811105C0F981FB3110F4A4
:1028E0002BE12983F090B6040091B7043091B50430
:1028F0003A83632F7F2D802F0E94DB0AE62ED72E8E
:10290000C82E6091B8048A81680F7F2D802F0E94A5
:10291000DB0A062FF72EB82EF981EF2FF0E0FB83AC
:10292000EA833A81311708F0A7CFEA81FB81E85C9E
:10293000FD4F908180914101892361F02B2D402F23
:102940006F2D90FD03C02C2D4E2D6D2D8A819B8106
:102950000E94030A2A813B812F5F3F4F3B832A83DA
:10296000E0CF8091400189838BE09981989F802DF1
:1029700011248983182F155F173308F016E30E947E
:10298000A411882319F01C3108F01BE10E94A41146
:10299000811105C0E981EB3110F4FBE1F983F0907E
:1029A000B604E090B7042091B80400E4029F012D22
:1029B00011243981232F30E03B832A839A81911798
:1029C00008F05ACFEA81FB81E85CFD4F808190914D
:1029D00041018923C9F0EA81FB81EE0FFF1FE45614
:1029E000FE4F81A982958F706091B504809F600D24
:1029F00011247F2D8E2D0E94DB0A462F282F672F52
:102A00008A819B810E94030A8A819B8101969B8314
:102A10008A83D4CFE09140018BE0E89F802D112480
:102A20008983182F155F173308F016E30E94A4114D
:102A3000882319F01C3108F01BE10E94A4118111B8
:102A400005C0F981FB3110F42BE12983F090B60425
:102A5000E090B7042091B80400E4029F012D1124F6
:102A60009981892F90E09B838A83FA81F11708F07E
:102A700003CFEA81FB81E85CFD4F808190914101A9
:102A80008923E9F0EA81FB81EE0FFF1FE456FE4F38
:102A900060A9069FB001112435E0759567953A95B8
:102AA000E1F78091B504680F7F2D8E2D0E94DB0A1F
:102AB000462F282F672F8A819B810E94030AEA8173
:102AC000FB813196FB83EA83D0CF209140018BE0DC
:102AD000289F802D11248983182F155F173308F044
:102AE00016E30E94A411882319F01C3108F01BE1A1
:102AF0000E94A411811105C039813B3110F48BE192
:102B000089830091B5049091B6049A83F090B7043C
:102B10006091B8046695669566958091AC04909135
:102B2000AD040E94D10A0E949D0A805887FD8195BC
:102B3000880F282F3F2D239F212D1124822F602FB6
:102B40007A810E94DB0A062FF72EE82E9981892FC1
:102B500090E09B838A83FA81F11708F08DCEEA8199
:102B6000FB81E85CFD4F808190914101892339F020
:102B70002E2D402F6F2D8A819B810E94030AEA81AE
:102B8000FB813196FB83EA83E6CF8AED99E00E94D0
:102B9000C212909140019F5F909340018111B4C196
:102BA00082E080934301809142018111ADC1772081
:102BB00009F4B5C10E94A4110E94A411E5CD80EBD7
:102BC00099E0E5CF82E89AE00E942212E2CF86E601
:102BD0009AE0FACF8EEA99E0DACF85E999E0D7CF8B
:102BE00082E59AE0F1CF209140018BE0289F802D73
:102BF00011248983182F155F173308F016E30E94FC
:102C0000A411882319F01C3108F01BE10E94A411C3
:102C1000811105C039813B3110F48BE189838091AA
:102C20004201811120C06091B80420E1620F08F4D4
:102C30006FEF8091AC049091AD040E94D10A6AE0DC
:102C400070E00E940131892B09F016CE0E94BC0A67
:102C5000E6E38E9FC001112460914101892F90E02D
:102C60000E946F0B09CE3981232F30E03B832A83EA
:102C7000E12EF12CEA81FB81EE15FF050CF0FCCD75
:102C8000609141018A819B810E946F0B8A819B81A7
:102C900001969B838A83EECFF09140018BE0F89FF1
:102CA000802D11248983182F155F173308F016E340
:102CB0000E94A411882319F01C3108F01BE10E9426
:102CC000A411811105C029812B3110F43BE1398316
:102CD000F090B6040091B7048091B5048A836091A6
:102CE000B8046695669566958091AC049091AD04A4
:102CF0000E94D10A0E949D0A805887FD8195880F05
:102D0000682F2CE0629F612D11249A81690F7F2D1D
:102D1000802F0E94DB0A062FF72EE82EF981EF2F75
:102D2000F0E0FB83EA833A81311708F0A5CDEA8110
:102D3000FB81E85CFD4F808190914101892339F04E
:102D40002E2D402F6F2D8A819B810E94030A2A819C
:102D50003B812F5F3F4F3B832A83E5CF8091420128
:102D6000882329F040E060E080E00E94060A90910C
:102D700040018BE0682E989F600C112486E3861535
:102D800010F496E3692E0E94A411882329F09BE198
:102D9000961510F48BE1682E0E94A4114091AC04AA
:102DA0005091AD046091AE047091AF04809189039D
:102DB00090918A03A0918B03B0918C03841795079F
:102DC000A607B70708F08CC06091B5047091B604EF
:102DD0008091B7040E94DB0A562E372E482E01E759
:102DE00013E0ECE9F1E0FB83EA83AA80BB804501B4
:102DF000780192E0998302C0F1E0F983F701219113
:102E00007F01F40181914F0190E0F501C580D12C43
:102E1000222309F467C0242D452D632D0E94030A47
:102E2000242D452D632DC6010E94030AF7018081E0
:102E300031978083F1E0AF1AB10829812130E1F6A2
:102E4000EA81FB81828190E0E380F12CF80122810C
:102E5000222309F450C0242D452D632D0E94030A1E
:102E6000242D452D632DC7010E94030A0E94BC0A30
:102E7000837091E009F090E0F80192830D5F1F4F9D
:102E80002A813B812A5F3F4F3B832A838CEC91E070
:102E90008217930709F0A9CF2091B80430E1230FDE
:102EA00008F42FEF60E1822F90E00E94D10ABC016C
:102EB00088EB9BE00E9401318091AC049091AD04BD
:102EC000A091AE04B091AF04860F971FA11DB11D54
:102ED0008093890390938A03A0938B03B0938C0310
:102EE000862DCBCC20E040E060E00E94030A20E089
:102EF00040E060E098CF20E040E060E00E94030AFC
:102F000020E040E060E0AFCF711054CE3DCC709235
:102F10003E01832F837080933D010E94441183E022
:102F200042CC8091B304882351F048E050E068E13E
:102F300070E084EB94E00E94D1311092B304C09011
:102F4000AC04D090AD04E090AE04F090AF040E94C9
:102F5000A4118823C1F02FB7F89460913D047091BB
:102F60003E0480913F04909140042FBF6C197D096D
:102F70008E099F09603171058105910508F404CC23
:102F80001092430101CC0E941813F0CFE4EBF4E05F
:102F900085E080838091440190914501A091460194
:102FA00081839283A3838FE784838FEF858348E0B7
:102FB00050E068E170E0CF010E94D1311092B3047B
:102FC00008959091420492FB222720F9281779F066
:102FD00080FB92F990934204609141047091420405
:102FE00084E090E00E94FF3182E00E94130F089578
:102FF000A4E0B0E0EEEFF7E10C9424314091060339
:103000005091070360910803709109032FB7F8945A
:1030100080913D0490913E04A0913F04B091400402
:103020002FBF841B950BA60BB70B11E084369105BF
:10303000A105B10570F10E9418136E5F7F4F8F4F8D
:103040009F4F69837A838B839C8380911901909130
:103050001A0180519D4F4091180150E045305105B3
:1030600010F044E050E0BE016F5F7F4F0E94AA3134
:1030700083E090E00E948B30182F882351F00E944B
:103080005E08609306037093070380930803909390
:103090000903812F2496E3E00C944031EF92FF92D4
:1030A0001F93CF93DF9300D000D00F92CDB7DEB740
:1030B0007B0190E080E00E948B30182F882309F478
:1030C0006DC04091030150E04115510511F041E000
:1030D00050E0609104017091050160517D4FCE0177
:1030E00005960E94AA314091E8025091E902609150
:1030F000EA027091EB022FB7F89480913D04909111
:103100003E04A0913F04B09140042FBF841B950B57
:10311000A60BB70B84369105A105B10538F481EFF4
:1031200092E00E94D7069D818917C1F181E090E06D
:103130000E948B30882309F458C040910B0150E065
:103140004530510510F044E050E060910C01709161
:103150000D0160517D4FCE0101960E94AA3181EF91
:1031600092E00E94D7069D8189133FC00E945E08AD
:103170006093E8027093E9028093EA029093EB0275
:1031800089819A81AB81BC818093E4029093E502AE
:10319000A093E602B093E70211E00EC08091F10225
:1031A0009091F202A091F302B091F40289839A8384
:1031B000AB83BC831111E4CF8091E4029091E502CE
:1031C000A091E602B091E702F70180839183A28388
:1031D000B383812F0F900F900F900F900F90DF917E
:1031E000CF911F91FF90EF90089510E0E5CF4F929F
:1031F0005F926F927F928F929F92AF92BF92EF9267
:10320000FF920F931F93CF93DF937B01FB014080CD
:103210005180628073809FB7F89480903D049090B5
:103220003E04A0903F04B09040049FBF84189508CE
:10323000A608B708F4E68F169104A104B10418F4A7
:10324000C1E0442329F1C82F880FDD0BFE0183E084
:10325000EE0FFF1F8A95E1F7E050FF4F81819281C9
:1032600080519D4F408150E00417150708F4A801D4
:10327000B9010E94AA31CE010E948B30C82F882349
:1032800039F00E945E08F701608371838283938323
:103290008C2FDF91CF911F910F91FF90EF90BF90F6
:1032A000AF909F908F907F906F905F904F90089518
:1032B000A9E0B0E0EEE5F9E10C94233188E0E4EB1D
:1032C000F4E0DE01119601900D928A95E1F71986DE
:1032D00049E050E06DEF72E0CE0101960E949D3111
:1032E00041E0892B09F440E009E010E09E012F5FE6
:1032F0003F4F6AE073E084E00E94F7182996E4E00B
:103300000C943F310F931F93CF93DF93EC0144E074
:1033100050E065EF72E00E949D3141E0892B09F495
:1033200040E004E010E09E016CEE72E082E00E945A
:10333000F718DF91CF911F910F910895A8E0B0E0A9
:10334000E4EAF9E10C94253166EE7EEF90E080E04E
:103350000E94FF3160E082E090E00E94E13160E095
:1033600083E090E00E94E1311092D6021092D502E3
:1033700060E074E184E090E00E94FF3160E086E06C
:1033800090E00E94E1316FEF87E090E00E94E13130
:1033900040E050E0BA0188E090E00E94F33160E044
:1033A00084E290E00E94E13160E087E190E00E94D9
:1033B000E13160E08CE090E00E94E13160E08DE07E
:1033C00090E00E94E13119821A821B821C821D82C8
:1033D0001E821F82188648E050E068E170E0CE014E
:1033E00001960E94D13140E050E0BA0180E290E0C5
:1033F0000E94F33140E050E0BA018FE090E00E947B
:10340000F33140E050E0BA0183E190E00E94F331F3
:103410002896E2E00C9441311F920F920FB60F9262
:1034200011242F933F934F935F936F937F938F93C9
:103430009F93AF93BF93EF93FF938091E10082FF3F
:1034400009C08091E20082FF05C08091E1008B7F7E
:103450008093E1008091DA0080FF24C08091D80041
:1034600080FF20C08091DA008E7F8093DA00809107
:10347000D90080FF9DC080E189BD82E189BD09B48A
:1034800000FEFDCF81E080936804809143048111A8
:1034900009C00E9401070E94A2078091E200846097
:1034A0008093E2008091E10080FF17C08091E200EC
:1034B00080FF13C08091E2008E7F8093E2008091B4
:1034C000E20080618093E2008091D8008062809366
:1034D000D80019BC85E0809368048091E10084FFE6
:1034E0002BC08091E20084FF27C080E189BD82E18A
:1034F00089BD89B5982F917080FFFBCF8091D8004E
:103500008F7D8093D8008091E1008F7E8093E100D1
:103510008091E2008F7E8093E2008091E2008160E2
:103520008093E20080916904882309F447C084E015
:1035300080936804809168048091E10083FF27C034
:103540008091E20083FF23C08091E100877F809318
:10355000E10082E080936804109269048091E100A8
:103560008E7F8093E1008091E2008E7F8093E20065
:103570008091E20080618093E20042E060E080E0C0
:103580000E9470078091F00088608093F000FF91A6
:10359000EF91BF91AF919F918F917F916F915F91CB
:1035A0004F913F912F910F900FBE0F901F90189544
:1035B00019BC109268041092430474CF8091E30008
:1035C00087FD93E090936804B5CF78941F921FB65F
:1035D0001F9211248F939F93AF93BF9380913D04CB
:1035E00090913E04A0913F04B09140040196A11D2A
:1035F000B11D80933D0490933E04A0933F04B0938B
:103600004004BF91AF919F918F911F901FBE1F905B
:1036100018959C014FB7F89480913D0490913E0419
:10362000A0913F04B09140044FBF821B930B0895BB
:103630002FB7F89480913D0490913E04A0913F04EF
:10364000B09140042FBF08950E94181B9C019091D7
:10365000690380916A03982B21F0309366032093CD
:10366000650390916B0380916C03982B21F030934C
:10367000640320936303E0913804F0913904309798
:1036800049F082E0809367030480F581E02D87E6AE
:1036900093E0099508951092D40280913F01E2E7EA
:1036A000F2E0882329F18091410487FF21C08EE157
:1036B000DF011D928A95E9F790E080E00E94EE0814
:1036C00090E080E00E94C9081092D3020E944D1041
:1036D00086E0E7E6F3E0DF011D928A95E9F71092B4
:1036E000600310926103109262030E94241B0895EC
:1036F00086E0DECFAAE2B0E0E0E8FBE10C94243102
:103700008AE694E02091F100FC012193CF01F4E0DE
:1037100082379F07B9F780916B04833009F470C03A
:10372000B8F4813009F447C0823009F4B1C0809107
:10373000E80083FF7EC280916A0490916B049A3006
:1037400008F077C2E92FF0E0E95EFD4C0C948E3171
:103750008A3009F48CC08B3009F46FC0893039F796
:1037600080916A04813219F780916E0490916F0400
:103770000297E8F68091E800877F8093E8008091C7
:10378000E80082FF38C09091F3008091F200029728
:1037900031F48091F100813011F0863021F4809174
:1037A000F100809345048091E8008B778093E800D6
:1037B0000E945107BCCF80916A04813A09F0B7CFCB
:1037C0008091E800877F8093E80080916E0490915B
:1037D0006F04892B61F460E286E494E070E00E945B
:1037E000FD078091E8008B778093E800A0CF60E030
:1037F00090E080E0F3CF809168048111C0CF97CF33
:1038000080916A04813A09F092CF80916E04909180
:103810006F04892B09F08BCF8091E800877F80931C
:10382000E8008091E80080FFFCCF80913F01809309
:10383000F1008091E8008E77B9CF80916A048132DF
:1038400009F075CF80916E0490916F04892B09F077
:103850006ECF8091E800877F8093E8000E94510737
:1038600080916C0480933F010E944B1B60CF80913C
:103870006A04813209F05BCF8091E800877F8093F2
:10388000E8000E94510780916D04809344044FCF5B
:1038900080916A04813A09F04ACF8091E800877FDD
:1038A0008093E8008091E80080FFFCCF8091440481
:1038B000BECF803899F0823809F0BBC180916E0488
:1038C0008F70873008F0B5C18093E9008091EB00DC
:1038D00085FB882780F91092E90006C08091660474
:1038E00090916704911182609091E800977F909386
:1038F000E8008093F1001092F1008091E8008E774B
:1039000094C1882309F482C1823009F092C1809168
:103910006C04811185C180916E048F702FEF280F88
:10392000263008F086C18093E9002091EB0020FF4B
:1039300077C1933031F48091EB0080628093EB008B
:103940006FC19091EB0090619093EB0021E030E02B
:1039500001C0220F8A95EAF72093EA001092EA004C
:103960008091EB008860EACF811163C110916C04F3
:103970001F778091E3008078812B8093E300809112
:10398000E800877F8093E8000E9451078091E8005B
:1039900080FFFCCF8091E30080688093E30082E0A9
:1039A000111183E08093680444C18058823008F08C
:1039B00040C180916C0490916D048C3D23E092078E
:1039C000A1F583E08A838AE289834FB7F894DE0108
:1039D000139620E03EE051E2E32FF0E050935700D1
:1039E000E49120FF03C0E295EF703F5FEF708E2FF0
:1039F00090E0EA30C0F0C7968D939D932F5F2431FD
:103A000059F74FBF8091E800877F8093E8006AE212
:103A100070E0CE0101960E94FD078091E8008B774F
:103A20008093E80006C1C096E7CF40916E045091A4
:103A30006F04292F33272330310509F444C078F56A
:103A40002130310509F46FC08BE390E0E9E1F7E044
:103A50002230310509F0EDC02091E800277F209346
:103A6000E80020917004309171048217930708F4E4
:103A70009C0140E02115310509F064C0411162C08C
:103A80008091E80082FDC9CF80916804882329F2E3
:103A9000853019F28091E80083FFF2CFBECF21324A
:103AA0003105A9F12232310509F0C3C04115510594
:103AB00009F443C04130510509F0BBC086EB90E0EA
:103AC000EFE1F6E0C9CF992781309105C1F0009769
:103AD00059F0029709F0ADC0E6E6F7E0E4918E2FC9
:103AE00090E0E6E6F7E007C0E6E8F7E0E4918E2F25
:103AF00090E0E6E8F7E0009709F49BC0ADCFE4E77B
:103B0000F7E0E4918E2F90E0E4E7F7E0F4CF411581
:103B1000510571F04130510509F08BC089E090E00A
:103B2000E4E4F7E099CF82E190E0E4E5F7E094CFB8
:103B300089E090E0EBE2F7E08FCF84E490E0E5ED00
:103B4000F6E08ACF80916804882309F466CF853037
:103B500009F463CF8091E80083FD5FCF8091E80096
:103B600082FD8ECF8091E80080FF84CF9091F3009A
:103B70008091F2002115310519F08830910550F03F
:103B800041E0089709F040E08091E8008E7780934B
:103B9000E80070CF44914093F100319621503109F3
:103BA0000196E8CF803809F044C08091E800877F13
:103BB0008093E800809169048093F1009ECE81118A
:103BC00038C010916C041230A0F58091E800877F16
:103BD0008093E800109369040E945107112311F0AB
:103BE00084E005C08091E30087FDFACF81E08093F7
:103BF000680442E061EC81E00E94700742E261ECFF
:103C000082E00E9470078091680413C080916C0468
:103C1000813079F481E0933009F080E0809367048B
:103C20001092E9008091E800877F8093E8000E946D
:103C300051078091E80083FF0AC08091E800877FE8
:103C40008093E8008091EB0080628093EB00AA965D
:103C5000E3E00C9440311F920F920FB60F921124A3
:103C60002F933F934F935F936F937F938F939F9384
:103C7000AF93BF93CF93DF93EF93FF93D091E9007E
:103C8000DF708091EC00C82FC17080FDC0E81092F9
:103C9000E9008091F000877F8093F00078940E9483
:103CA0007A1B1092E9008091F00088608093F00008
:103CB000CD2BCF70C093E900FF91EF91DF91CF91B1
:103CC000BF91AF919F918F917F916F915F914F9134
:103CD0003F912F910F900FBE0F901F9018950E944B
:103CE0004B1B2FEF84E39CE0215080409040E1F794
:103CF00000C0000088E19CE00FB6F894A89580937E
:103D000060000FBE90936000FFCF662309F45DC092
:103D10008D3C41F40E94CC0B819580936A030E94F4
:103D2000241B08958E3C19F40E94CC0BF6CF8F3CD7
:103D300031F40E94CC0B819580936903F0CF803DD4
:103D400019F40E94CC0BF8CF893D29F40E94AA0BEC
:103D500080936B03E4CF8A3D21F40E94AA0B8195E6
:103D6000F7CF8B3D31F40E94AA0B819580936C03B1
:103D7000D6CF8C3D19F40E94AA0BF8CF9FE2980F82
:103D8000983070F4815D990B21E030E001C0220F82
:103D90008A95EAF780916803822B80936803BFCFEE
:103DA0008D3D31F480916203816080936203B7CFCF
:103DB0008E3D21F4809162038260F7CF8F3D09F040
:103DC000AECF809162038460F0CF409169038D3C57
:103DD00059F480916A0387FF0DC010926A03411164
:103DE0000BC01092600308C08E3C81F480916A037E
:103DF00018169CF3442381F080916B0390916C031F
:103E0000892B09F08CCF1092610389CF8F3C49F444
:103E100047FFF0CF1092690380916A038111ECCFC4
:103E2000E0CF803D19F41416ACF3E4CF90916B030E
:103E3000893D29F41916F4F610926B03DBCF8A3D05
:103E400019F497FFD7CFF8CF90916C038B3D29F4ED
:103E500097FFD0CF10926C03CDCF8C3D19F419167B
:103E6000CCF3C8CF9FE2980F983090F4815D990B06
:103E700021E030E0B90102C0660F771F8A95E2F7B2
:103E8000CB01809590916803892380936803B2CF1A
:103E90008D3D31F4809162038E7F80936203AACFBF
:103EA0008E3D21F4809162038D7FF7CF8F3D09F025
:103EB000A1CF809162038B7FF0CF882399F19CEF93
:103EC000980F913A40F4682F80E792E00E946A08C8
:103ED0000E944D10089590E2980F983050F487702A
:103EE00091E001C0990F8A95EAF7892F0E94410E4F
:103EF000EFCF9BE5980F933028F490E080E00E948C
:103F0000EE08089598E5980F9B3128F490E080E042
:103F10000E94C908089593E3980F933118F460E064
:103F20000E94851E0895CF93C82F8823D1F18CEF6E
:103F30008C0F813AC0F580913F01882311F1809167
:103F4000410487FF1EC0EC2FE695E695E695F0E06C
:103F5000E059FD4F828190E04C2F477021E030E026
:103F600002C0220F331F4A95E2F782239323892B45
:103F700089F06C2F80E792E00E946A080E944D1041
:103F800009C0E2E7F2E08191C81799F382E0E837CF
:103F9000F807C9F76C2F80E792E00E9494080E940E
:103FA0004D10CF91089580E28C0F883068F4C7706F
:103FB00021E030E001C0220FCA95EAF78091D402D7
:103FC000822B8093D402EBCFEBE5EC0FE33040F48F
:103FD000F0E0E95BFE4F808190E00E94EE08E1CFC7
:103FE000E8E5EC0FEB3150F4F0E0EE0FFF1FE65B7D
:103FF000FE4F808191810E94C908D3CF83E38C0F4B
:10400000833178F661E08C2F0E94851ECACF0F9312
:104010001F93CF93DF93C62FD42F022FFC018581EE
:104020008823A9F06093B2040E94181B9093B104F6
:104030008093B004C77081E001C0880FCA95EAF789
:104040000E94A910DF91CF911F910F910895809147
:10405000B204681335C08091B0049091B1040E94FD
:10406000091B883C910560F510E21D0FCD17B9F0D2
:1040700080E28C0F883040F4C77081E001C0880F67
:10408000CA95EAF70E94A210183048F481E09D2FEB
:10409000977001C0880F9A95EAF70E94A910802FA7
:1040A0000E94931F802F0E945D1F183058F6D77012
:1040B00081E001C0880FDA95EAF70E94A210C2CF12
:1040C000C77081E001C0880FCA95EAF7F6CFB0E06B
:1040D000A0E0EDE6F0E20C941D318C01FC0184813E
:1040E000882309F467C021E0408151816281738196
:1040F00095810E94620FEC01F8019581992309F4E2
:1041000047C4818180933A0380818093390380E2A0
:1041100080933301D0933803C09337039E0130520C
:104120002115304238F4F8018681807F09F45EC0A1
:10413000FE010AC09E01305421153041C8F4F80137
:104140008681807FFE0109F0FF27ED33F10528F419
:10415000E455FF4FE491E0933301FE01E851FC4741
:10416000E730F10508F042C0EF5DFD4C0C948E3154
:104170009E013A9521153F41D8F29E01205A3245C1
:104180002032310550F3FE01E0CF26E241EE61EE30
:10419000C8010E9407208091B102877059F0F80190
:1041A0008581882339F08091420482FF03C082E038
:1041B0000E94130FCDB7DEB7EAE00C94393127E245
:1041C00045EE65EEE5CF26E241EE60EEE1CF27E277
:1041D00045EE64EEDDCF26E241EE62EED9CF27E276
:1041E00045EE66EED5CF28E241E0EBCF1092B20467
:1041F0009E0130572332310508F0E4C384E090E09B
:104200000E94CB319093420480934104FE01E1501F
:10421000F047E232F10520F4E85DFD4C0C948E315C
:104220008091410481608093410495C08091420453
:104230008860809342048FC0809141048260F3CFF4
:10424000809141048460EFCF809141048860EBCF7E
:10425000809142048160EDCF809142048260E9CF79
:10426000809141048061DFCF809141048062DBCF87
:10427000809141048064D7CF0E944B1B8091410400
:104280008068D1CF809141048C60CDCF8091420471
:104290008360CFCF809141048E7FC5CF809142044F
:1042A000877FC7CF809141048D7FBDCF809141042E
:1042B0008B7FB9CF80914104877FB5CF8091420435
:1042C0008E7FB7CF809142048D7FB3CF8091410420
:1042D0008F7EA9CF809141048F7DA5CF809141042D
:1042E0008F7BA1CF0E944B1B809141048F779BCF86
:1042F00080914104837F97CF809142048C7F99CF36
:104300008091410482FB992790F921E0922790FB4C
:1043100082F990FB83F987CF80914204982F909582
:1043200091708E7F892B90FB81F983CF909141040E
:10433000892F8F7B96FF806476CF0E944B1B9091D4
:104340004104892F97FB87F980586DCF61E08EE09B
:1043500090E00E94E131609141047091420484E058
:1043600090E00E94FF310E944B1B15CF60E0EFCF21
:1043700090914104892F8F7E94FF806154CF90915A
:104380004104892F8E7F90FF81604DCF9091420430
:10439000892F877F93FF88604CCF8091900269E2DC
:1043A000811165E380E792E00E946A081FC39923A8
:1043B00009F4FAC2C3303CE7D30709F4BDC008F0E2
:1043C000A0C0C1159CE7D90709F4A9C0C130DC47DA
:1043D00009F4B8C0F8018581C081D181882309F42E
:1043E000BFC0CE010E94520EF82E682FCE010E944F
:1043F000C60EBE018F2D0E94040D0E94230DD82FE2
:10440000C92FA82EF801C580B680B2943FE0B32230
:104410008091B1028770F1F0EC2CCC20E1F0892F73
:10442000807F803451F080E28D0F883098F0B11099
:1044300004C0892F807E803269F08091420482FF1F
:1044400009C082E00E94130F8091B1028770EE24B0
:10445000E3948111E12CDC2ED2942FE0D222FBE0F8
:10446000FD1508F4E2C0ED2DF0E0E65BFD4C0C9488
:104470008E318091B40491E089278093B404109226
:1044800043018091B30481608093B30484CE40E8FB
:1044900059E06AE879E00E9413097DCE4AE859E0C4
:1044A00060E879E0F8CF4CE659E066E779E0F3CFD1
:1044B00046E759E06CE679E0EECF42E559E06FE57A
:1044C00079E0E9CF4FE559E062E579E0E4CF48E3F0
:1044D00059E065E479E0DFCF45E459E068E379E04D
:1044E000DACF4CE159E06AE279E0D5CF4AE259E00F
:1044F0006CE179E0D0CF81E00E949F064CCE85E050
:10450000FBCFCB35FCE7DF0749F1CC352CE7D207F1
:10451000D9F0CA35DC4709F05DCF81E01CC00E94AC
:104520004B1B8FEF94E3ECE081509040E040E1F7CB
:1045300000C000000E9420116FEF7FEF90E080E04C
:104540000E94FF310E946F1E8091420482FB8827E7
:1045500080F991E089270E94E1173CCF80E0FBCFF2
:10456000CE010E94930EF82E44CF2C2F2F70F22EE6
:10457000C07F19F0F29490EFF922CC20B9F0FF201F
:1045800069F080E28D0F883010F0A11009C0809191
:10459000D402F82AF092D4020E944D108D2F43C00D
:1045A0008091D302F82AF092D302F6CF8D2F0E9489
:1045B0005D1FFF20D1F1D05ED83010F0A11004C0F3
:1045C0008F2D0E94410E06C0F0948091D302F822F4
:1045D000F092D3020E944D1028C03C2F3F70F32E62
:1045E000C07FC03219F0F29480EFF822AA2059F06F
:1045F00081E0A81609F479C0CC2009F485C0BB205D
:1046000009F447C0CBCF8091420482FD3EC0CC204C
:10461000B1F1FF2039F08091D402F82AF092D4024F
:104620000E944D1080E00E94931F2D2D2850330BC7
:104630002430310510F40E94C911EE20A9F08091B8
:10464000B10280FD11C0F801158286958695869588
:104650000E942A0FC8010E9467208091B1028695AE
:10466000869586950E94010F20E0F80140815181D6
:1046700062817381848195810E94620F9BCD80E06D
:104680000E945D1FFF2089F29BCFCC20A1F0B110CA
:1046900004C08F2D0E94A910C8CF91E0B912C5CFD8
:1046A0008091D2029F2D9823F91609F4BECFF82AE3
:1046B000F092D202BACFB110B8CF8F2D0E94A210C3
:1046C0009091D2028F2D892329F08F2D80958923F7
:1046D0008093D202809191029F2D982309F4A5CF57
:1046E000F094F822F0929102A0CFCC2029F0E5E0DE
:1046F000EB1508F49ACFCDCFF4E0FB1508F495CF75
:104700008F2D0E94A21091CFBB20D1F329E3A212DA
:1047100009C03FEF87EE93E0315080409040E1F7D1
:1047200000C000008D2F0E945D1F7FCF8C2F8695CB
:104730008695837069F0813009F077CF8D2F9C2F9B
:104740009370C11002C080E090E00E94C9086DCF54
:104750008D2F9C2F9370C11002C080E090E00E94CA
:10476000EE0863CF6C2D8D2F0E94851E5ECF8C2F9F
:10477000837009F03FC0C11058CF4D2F4295469528
:104780004770440F440F2D2F2F7030E0042E02C0CD
:10479000220F331F0A94E2F790E080E0D4FF09C0B3
:1047A0008FE090E002C0880F991F4A95E2F780954C
:1047B0009095C695C695C370C23099F078F4409133
:1047C000D5025091D602C13039F0822B932B84232D
:1047D00095230E943A0F29CF242B352B822B932B24
:1047E000F8CF822B932B2091D5023091D6028227CD
:1047F0009327EFCF8695CC2011F08C2F81708823E2
:1048000009F413CF4D2F429546954770440F440F3E
:104810002D2F2F7030E0042E02C0220F331F0A9478
:10482000E2F790E080E0D4FF09C08FE090E002C0A2
:10483000880F991F4A95E2F780959095C695C69581
:10484000C370C23099F078F440912E0350912F0339
:10485000C13039F0822B932B842395230E94FC0EC8
:10486000E4CE242B352B822B932BF8CF822B932B4A
:1048700020912E0330912F0382279327EFCFCF7003
:10488000CC2029F08C2F0E942A0F8D2F03CF8D2F43
:104890000E94A2108C2F0E94010FC7CE8D2FE2EF35
:1048A000AE1699F1EA1570F0F0EFAF16D1F021EFE6
:1048B000A21691F0CC2009F45BC0B1106FCE8C2F02
:1048C0008F7127C033EFA31639F194EFA912F2CFFD
:1048D0008091420482FD2EC08C2F8F71CC20D9F2A2
:1048E00018C0CC2069F0E4E0EB1508F49ECECF713F
:1048F00081E090E002C0880F991FCA95E2F7B8CF17
:10490000F5E0FB1508F491CEF2CF8C2F8F71C1101A
:10491000C2CF0E942A0F89CE90E080E0CC2009F41B
:104920009DCFCF7181E090E002C0880F991FCA959A
:10493000E2F794CFCC2089F0CF718C2F0E942A0F00
:104940008091420482FF07C028E0C29FC001112469
:1049500083608093B1028C2FDCCF81E00E94130F23
:1049600031E03B1508F061CE82E00E94130F5DCE6E
:10497000BB2059F0893309F0D5CE8FEF97EEE3E0F5
:1049800081509040E040E1F7CBCE8C2F8F7183CFE8
:10499000FE01E851FC47E730F10508F4E5CBC631EC
:1049A0002CE7D20709F4F9CC8091D4028272FE017F
:1049B000E052F847E531F10508F00CCDEA5AFD4C1C
:1049C0000C948E31C631FCE7DF0709F0F0CC809102
:1049D000D4028A7A91E009F490E09093900269E21F
:1049E000811165E380E792E00E9494080E944D10D7
:1049F000D2CBCF93DF938091B002807F09F04DC07E
:104A00008091AF02882309F448C0E091AB04509133
:104A10007204C091AB02D091AA026091AC02709175
:104A2000AD0247E05E17C9F18E2F90E0E49FF001E0
:104A30001124ED58FB4F2481222391F1489FF0016E
:104A4000499FF00D1124DF01AD58BB4F11962C91F9
:104A500011972C1325C02C912D1322C015962C9143
:104A6000159721111DC012962D913C91261B370BD5
:104A7000283C3105A8F48091B0028F70806180934A
:104A8000B002E758FB4F80818F70806180838AEA93
:104A900092E00E9467200E94480EDF91CF91089516
:104AA000FC013196E770BECFA4E1B0E0EAE5F5E2A3
:104AB0000C941B318C0186E0F801DE011F960190F9
:104AC0000D928A95E1F7F8018481E5809AEAA92E92
:104AD00092E0B92E9091AE02911128C0882319F16D
:104AE000EE20F1F0C8010E943F0FF82E8823C1F09C
:104AF00087E0F801D50101900D928A95E1F7809148
:104B0000AE02813031F48091AA029091AB020E94F2
:104B1000860E0E94F9248F2D6496ECE00C943731B8
:104B2000C8010E946720FF24F394F5CFD080C18094
:104B300082809380F090AF022091AC023091AD0260
:104B4000A401421B530BFF2009F4D9C0483C510576
:104B500008F092C08823F9F29091AB028091B002E4
:104B6000282F207F09F056C0C91214C09091AA02C4
:104B7000D91210C0E11048C08F7080618093B002DC
:104B80008AEA92E00E9467208091B002F801868351
:104B9000F12CC1CFE11038C06C2D8D2D0E94B806CC
:104BA0006C2D8D2D0E94B806E82E8111F1CFDF8685
:104BB000C88A8F8598890E94860E292F22952F708A
:104BC000243058F49F70223088F0992399F0F8012E
:104BD0009681907F79F4FE2C9ECF2A5F2F70223031
:104BE00068F0C8010E946720EF2CF5CF992311F0DF
:104BF000882389F3805E883070F3F3CF803F58F3C9
:104C0000815F833070F7E7CF8091B002816080933D
:104C1000B002BECFC91207C09091AA02D91203C038
:104C2000EE2009F48DC0C8010E943F0F882309F4CB
:104C300077CFEE2009F474CF8091B002803288F0F3
:104C40002091AA023091AB02398728879B868A86F9
:104C50009091AE029C871D868E87CE0108960E9499
:104C6000672087E0F801AAEAB2E001900D928A95E8
:104C7000E1F70E94F92457CF9091B002292F207FAD
:104C800051F48AEA92E00E94672087E0F5011192D0
:104C90008A95E9F77DCF882309F43DCF8091AB0257
:104CA0008C1110C08091AA02D8120CC0E1100AC069
:104CB0009683C8010E94672087E0F50111928A95CA
:104CC000E9F729CFC8010E943F0F882309F428CFB4
:104CD000EE2009F425CF8091B002803210F22091AD
:104CE000AA023091AB023A8329839C828B829091F5
:104CF000AE029D831E828F83CE010196B0CF483CC9
:104D00005105D0F6882309F40ECFFE2CEE2009F4CD
:104D100007CF8091AB028C1120C08091AA02D812DB
:104D20001CC08091B00280FD0FC0982F907F61F071
:104D30008683903F31F0982F907F905F8F70892B02
:104D40008683C8010E94672087E0F801AAEAB2E0E2
:104D500001900D928A95E1F7DECEC8010E943F0FC7
:104D600081117FCF8091B00281608093B002C80131
:104D70000E946720D0CEABE1B0E0E1ECF6E20C940B
:104D800023314E8B5F8B688F798F8A8F9B8F192F82
:104D900091111092D3021D8A86E0FE017696DE0103
:104DA0001F9601900D928A95E1F70A8D002341F03C
:104DB00021E04F85588969897A89C8010E94620F6C
:104DC0000B8B1C8B87E0FE013F96DE01189601904D
:104DD0000D928A95E1F7CE0108960E945425811123
:104DE0002AC087E0FE013896DE01119601900D92EF
:104DF0008A95E1F78C858823F1F02091720430E0E8
:104E0000C9010196877099274091AB04481719068C
:104E1000E9F097E0929FD001939FB00D1124AD5817
:104E2000BB4FFE01319601900D929A95E1F7809368
:104E300072040E94480E17E08091AB0490917204B6
:104E4000891312C06B96E4E00C943F310E944B1B17
:104E5000109272041092AB0487E0EAEAF2E0DF01FC
:104E60001D928A95E9F7E7CF819FC00111248D58E3
:104E70009B4F0E945425882329F38091AB0490E036
:104E80000196877099278093AB04D6CFACE0B0E051
:104E9000ECE4F7E20C941A318E010F5F1F4F88E0AB
:104EA000D8011D928A95E9F782E8C82E81E0D82EB4
:104EB000F12CE12CAA24A394B12C2CE8822E21E021
:104EC000922EF60181916F018F3F09F442C0F89450
:104ED000E82FE295EF70F0E021A18F70A50102C0EC
:104EE000440F551F8A95E2F7CA01922F982B91A380
:104EF00092A18095892382A3789400C0E6E8F1E02E
:104F0000712C31E021912F3F09F46BC0A22FA295A3
:104F1000AF70B0E090968C9190E02F7002C09595A4
:104F200087952A95E2F780FD5CC0832F782A330F9E
:104F30008E169F0639F7F601319780818F3F11F069
:104F40000E94FC0B50EA5A95F1F7F801EE0DFF1D97
:104F500070828FEFE81AF80AA4E0EA16F10409F06B
:104F6000B0CF48E050E0B80183E193E00E949D316A
:104F7000009741F028E0F801A3E1B3E001900D9221
:104F80002A95E1F700911C03892B69F181E0809358
:104F9000DB020E94181B9093DA028093D902809161
:104FA000D9029091DA020E94091B059700F110E0E6
:104FB000035E1C4F44E050E063E173E0C8010E94CF
:104FC0009D31B12C892B51F084E0E3E1F3E0D8016D
:104FD00001900D928A95E1F7BB24B3941092DB0205
:104FE00007C080E0A3CF8091DB028111D8CFB12C24
:104FF0000E94A411A82EE0911C03882309F489C003
:1050000019861A861B861C860E2F10E0035E1C4F25
:1050100080910E038A3008F046C04EE458E1BE018C
:10502000675F7F4FC8010E947111882309F460C037
:1050300042E859E1BE01675F7F4FC8010E947111CC
:10504000882309F455C048EF57E1BE01675F7F4FE1
:10505000C8010E947111882309F44AC048E559E14A
:10506000BE01675F7F4FC8010E947111882309F458
:105070003FC010920E0380911B0390E044E050E08B
:10508000BE01675F7F4F835E9C4F0E949D3121E090
:105090002093E202892BF1F4A12C8A2D8B292C96E6
:1050A000EDE00C9436318091DC029091DD020E949B
:1050B000091B843F914008F0B0CF8091E202882321
:1050C00059F3FE01399684E0DF011D928A95E9F7D4
:1050D0001092E202E0911B03F0E0E35EFC4F898551
:1050E0009A85AB85BC8580839183A283B383D5CF1A
:1050F00080910E038F3F31F08F5F80930E038A30D3
:1051000008F4B9CF0E94181B9093DD028093DC0253
:10511000D4CF00911B0310E0035E1C4FF0E0E35E70
:10512000FC4F84E0A1EFB2E001900D928A95E1F787
:1051300081EF92E00E94D7068093F00284E0E5EFD1
:10514000F2E0D80101900D928A95E1F7C090F90242
:10515000D090FA02E090FB02F090FC028091DE0217
:105160009091DF02A091E002B091E102C816D90649
:10517000EA06FB06D1F0C092DE02D092DF02E09296
:10518000E002F092E1020E94A41181110EC00E947F
:105190005E08C61AD70AE80AF90AC0920F03D0922D
:1051A0001003E0921103F092120388E0EDEFF2E0B9
:1051B000A4EBB4E001900D928A95E1F76ECFA6E0E2
:1051C000B0E0E5EEF8E20C9423310E94181B8C014C
:1051D0008091D7029091D8028017910781F01982AF
:1051E0001A820E94181B682F49815A81792F80E00A
:1051F00090E00E94BB261093D8020093D702269617
:10520000E4E00C943F311F921FB61F9211248F933C
:105210009F93AF93BF9380913C04811113C0809101
:105220003D0490913E04A0913F04B091400441960A
:10523000A11DB11D80933D0490933E04A0933F04B3
:10524000B0934004BF91AF919F918F911F901FBE6B
:105250001F901895CDB7DEB760970FB6F894DEBFF4
:105260000FBECDBF85B7806885BF85B7806885BF15
:1052700084B7877F84BF0FB6F894A89580916000AB
:10528000886180936000109260000FBE80E890E01B
:105290000FB6F89480936100909361000FBE8AEF7F
:1052A0009BE090936F0280936E020E9401070E9420
:1052B000A2078091E20084608093E200789480915C
:1052C00068048823A1F01091E9001F709091EC0010
:1052D000892F817090FD80E8182B1092E900809151
:1052E000E80083FD0E947A1B1F701093E90082E0A2
:1052F00084BD93E095BD9AEF97BD80936E001092A8
:105300000F031092100310921103109212030E94C7
:10531000A411809328010E94A41181110E949F2F43
:10532000809128018091280194E0811190E0909370
:105330001C0384E0891B80931B0384E90E94FC0BFF
:1053400086E60E94FC0B87E90E94FC0B86EC0E941B
:10535000FC0B06E811E08CE8E82E81E0F82ED8017D
:105360008D918D018F3F11F00E94FC0BE016F1062C
:10537000B1F788E0EDE1F3E0DF01282F1D922A95D7
:10538000E9F7E3E1F3E0DF011D928A95E9F790E0A8
:1053900080E00E94CB31863E9E4F11F00E949E1904
:1053A00082E090E00E94C3318093250384E090E086
:1053B0000E94CB3190934204809341040E9446277F
:1053C000EFEFF6E721E0E150F0402040E1F700C0C8
:1053D00000000E9446270E94A411E4E08111E0E051
:1053E000F0E0E35EFC4F808181FF08C06FEF7FEF4C
:1053F00090E080E00E94FF310E94201183E090E065
:105400000E94C33190E00E943A0F0E94190990E077
:1054100080E00E94CB31863E9E4F21F00E949E1973
:105420000E94C61781E08093B30448E050E068E131
:1054300070E084EB94E00E94B3311092B304809149
:10544000B4048C7F11F40E94C6170E94A41181112C
:10545000B7C082E080935B0380E88093BC040E9425
:10546000592E6BE070E08FED92E00E94321388239A
:10547000E9F180915B0365E070E081FDA3C08AEDF6
:1054800092E00E943213882389F16DE070E088EC8D
:1054900092E00E943213882349F10E945E08605A0C
:1054A00075418F4F9F4F6093300470933104809308
:1054B000320490933304EFEBF4E080E092E0DF01FC
:1054C0009C011D9221503040E1F7F093C606E09315
:1054D000C5068FEF9FEF9093BE048093BD0481E0DB
:1054E000809335048093340410925C030E94A411CD
:1054F000811102C00E94A22F89E291E090933904A9
:1055000080933804A0E46A2EBAE0CB2ED12CE12C93
:10551000F12C8091680400E112E1853009F48FC01C
:105520000E944627E6E2AE2EE3E0BE2EFDE18F2E7E
:10553000F3E09F2ED401F50191918D9123E0EE329D
:10554000F20709F486C09817B9F30E94A411382E07
:1055500010E022242394D4010D914D01F5014190D6
:105560005F01401629F1712C552453944026842D57
:105570008521B1F03320A1F07F8218870E94181B8B
:105580009A8789872B8691E0802F852109F490E006
:105590009C874F81588569857A858B850E94BB26BB
:1055A0007394550CF6E07F12E2CFF501319700833A
:1055B0001F5F183081F60E941813772473944EC031
:1055C00080E048CF85ED92E05CCF80916804843024
:1055D00039F10E949F130E945C1310923C0488E1F1
:1055E00090E00FB6F894A895809360000FBE60928B
:1055F000600083B7817F846083BF83B7816083BF8E
:105600007894889583B78E7F83BF0FB6F894A8955A
:1056100080916000886180936000109260000FBEEE
:1056200080916704882359F00E944627EDE1F3E05A
:105630008191811119C393E0E532F907C9F780918F
:105640006804853009F4C1CF0E944B1B0E94C91128
:1056500067CF98137ACF0E94DF28712C0E94A41183
:105660000E949F1380913504882309F4B3C0809170
:105670005D0390915E030E94091BC29708F48AC0E3
:105680000E94181B90935E0380935D038FEB94E060
:105690009093C6068093C5060E94A411882309F43E
:1056A000C1C18BE093E00E94071020912E0330913E
:1056B0002F03832F9927009751F19C0188E0A901BE
:1056C00064E0569547956A95E1F74115510511F04B
:1056D0008C5F9A01A90156954795569547954115B6
:1056E000510511F08E5F9A0136952795232B09F00D
:1056F0008F5F813009F450C1882359F0823009F45A
:105700004EC1833009F44EC18AEE92E004C080E0BD
:10571000D6CF83E093E00E94471080913A03805DEA
:105720000E94870F89E193E00E940710809139035E
:10573000805D0E94870F85E193E00E940710209012
:10574000370330903803809131019091320128164F
:10575000390609F02AC180913603803209F025C14B
:10576000E0E3F3E08F0181918032E1F3F8010190F1
:105770000020E9F79F012150310959010A151B0545
:1057800008F44AC183E193E00E940710809133013D
:105790000E94870F8091BD049091BE04892B09F06F
:1057A0007EC1809134048823A9F00E945E08009194
:1057B0003004109131042091320430913304601B85
:1057C000710B820B930B6F3F7F4F8F4F9F4710F4EE
:1057D0000E945C1371100E94771386E0E7E6F3E005
:1057E000DE01119601900D928A95E1F79090680381
:1057F00010916903B0906A03A0906B0300916C0351
:105800001092690310926A0310926B0310926C035A
:10581000812F8B2909F445C080916503909166031F
:105820000E94091B9C0190916003992309F43CC2DA
:1058300025313105B0F19F3F19F09F5F90936003D0
:10584000112359F00E94CC0B9FEF11160CF491E03C
:10585000899F802D112480936903BB2059F00E94F9
:10586000CC0B91E01B140CF09FEF899F802D11242D
:1058700080936A0380916903882399F080906A037A
:10588000882079F00E94EC0B882309F4E5C180930D
:105890006903882D0E94EC0B882309F4DFC18093F3
:1058A0006A038A2D802B09F445C08091630390918F
:1058B00064030E94091B9C0190916103992309F4E0
:1058C000EEC121353105B0F19F3F19F09F5F9093F4
:1058D0006103AA2059F00E94AA0B9FEF1A140CF43E
:1058E00091E0899F802D112480936B03002359F050
:1058F0000E94AA0B91E010160CF09FEF899F802D5B
:10590000112480936C0380916B03882399F0A090FD
:105910006C03AA2079F00E94EC0B882309F4A0C143
:1059200080936B038A2D0E94EC0B882309F49AC1A3
:1059300080936C0380916803981217C0809169036B
:10594000882311F0181311C020916A03222311F04B
:105950002B110BC090916C03992311F0901305C08B
:1059600030916B03332309F495C10E94241B86E018
:10597000FE013196A7E6B3E001900D928A95E1F71A
:105980000E94C91190915F03891709F4C2CD8093D9
:105990005F030E945E08BDCD8DEF92E0BCCE87EF25
:1059A00092E0B9CE80EF92E0B6CE309232012092F2
:1059B000310180E280933603512C412C1092350343
:1059C000B0E38B2EB3E09B2E1BE2A12E13E0B12E91
:1059D0008401C201B101A70196010E946C31605D92
:1059E000603319F48016910631F02114310441041A
:1059F000510409F460E2D80114966C93C201B1011C
:105A0000A70196010E946C3119012A010150110968
:105A1000A016B106F1F6A4CED8018D918D010E9499
:105A2000870FACCE8091C5069091C6068F5B9440DF
:105A30009C013E5F21303240A0F020E032E0281B84
:105A4000390B4091BD045091BE04EBE1F3E0280F07
:105A5000391F8217930740F05093BE044093BD0452
:105A600099CE20E032E0EDCF6491DC01A154BB4F30
:105A70007C91671789F06C93BC01A5E076956795DA
:105A8000AA95E1F7A1E0B0E002C0AA0FBB1F6A959A
:105A9000E2F7BD014A2B572B01963196DACF809160
:105AA0003504882309F47DCE80915C03811179CE81
:105AB0000E9477132091BD043091BE042115310559
:105AC00009F46FCE80E0482E512C22242394312CEF
:105AD000082E02C0220C331C0A94E2F7A1014223D3
